{
	"contracts/SimpleContract.sol": {
		"SimpleContract": {
			"abi": [
				{
					"inputs": [
						{
							"internalType": "address",
							"name": "_owner",
							"type": "address"
						}
					],
					"stateMutability": "nonpayable",
					"type": "constructor"
				},
				{
					"inputs": [
						{
							"internalType": "address",
							"name": "",
							"type": "address"
						},
						{
							"internalType": "address",
							"name": "",
							"type": "address"
						}
					],
					"name": "allowance",
					"outputs": [
						{
							"internalType": "bool",
							"name": "",
							"type": "bool"
						}
					],
					"stateMutability": "view",
					"type": "function"
				},
				{
					"inputs": [],
					"name": "allowed",
					"outputs": [
						{
							"internalType": "bool",
							"name": "",
							"type": "bool"
						}
					],
					"stateMutability": "view",
					"type": "function"
				},
				{
					"inputs": [
						{
							"internalType": "address",
							"name": "_address",
							"type": "address"
						}
					],
					"name": "assignAllowance",
					"outputs": [],
					"stateMutability": "nonpayable",
					"type": "function"
				},
				{
					"inputs": [],
					"name": "count",
					"outputs": [
						{
							"internalType": "uint256",
							"name": "",
							"type": "uint256"
						}
					],
					"stateMutability": "view",
					"type": "function"
				},
				{
					"inputs": [
						{
							"internalType": "uint256",
							"name": "",
							"type": "uint256"
						}
					],
					"name": "errorMessages",
					"outputs": [
						{
							"internalType": "string",
							"name": "",
							"type": "string"
						}
					],
					"stateMutability": "view",
					"type": "function"
				},
				{
					"inputs": [],
					"name": "getSizeOfErrorMessages",
					"outputs": [
						{
							"internalType": "uint256",
							"name": "",
							"type": "uint256"
						}
					],
					"stateMutability": "view",
					"type": "function"
				},
				{
					"inputs": [
						{
							"internalType": "uint256",
							"name": "_increment",
							"type": "uint256"
						}
					],
					"name": "increment",
					"outputs": [],
					"stateMutability": "nonpayable",
					"type": "function"
				},
				{
					"inputs": [],
					"name": "oneIncrement",
					"outputs": [],
					"stateMutability": "nonpayable",
					"type": "function"
				},
				{
					"inputs": [],
					"name": "owner",
					"outputs": [
						{
							"internalType": "address",
							"name": "",
							"type": "address"
						}
					],
					"stateMutability": "view",
					"type": "function"
				},
				{
					"inputs": [
						{
							"internalType": "bool",
							"name": "_allowed",
							"type": "bool"
						}
					],
					"name": "setAllowed",
					"outputs": [],
					"stateMutability": "nonpayable",
					"type": "function"
				},
				{
					"inputs": [],
					"name": "signedCount",
					"outputs": [
						{
							"internalType": "int256",
							"name": "",
							"type": "int256"
						}
					],
					"stateMutability": "view",
					"type": "function"
				},
				{
					"inputs": [
						{
							"internalType": "int256",
							"name": "_increment",
							"type": "int256"
						}
					],
					"name": "signedIncrement",
					"outputs": [],
					"stateMutability": "nonpayable",
					"type": "function"
				}
			],
			"devdoc": {
				"kind": "dev",
				"methods": {},
				"version": 1
			},
			"evm": {
				"assembly": "    /* \"contracts/SimpleContract.sol\":60:1315  contract SimpleContract {... */\n  mstore(0x40, 0x80)\n    /* \"contracts/SimpleContract.sol\":301:494  constructor(address _owner){... */\n  callvalue\n  dup1\n  iszero\n  tag_1\n  jumpi\n  0x00\n  dup1\n  revert\ntag_1:\n  pop\n  mload(0x40)\n  sub(codesize, bytecodeSize)\n  dup1\n  bytecodeSize\n  dup4\n  codecopy\n  dup2\n  dup2\n  add\n  0x40\n  mstore\n  dup2\n  add\n  swap1\n  tag_2\n  swap2\n  swap1\n  tag_3\n  jump\t// in\ntag_2:\n    /* \"contracts/SimpleContract.sol\":346:352  _owner */\n  dup1\n    /* \"contracts/SimpleContract.sol\":338:343  owner */\n  0x03\n  0x00\n    /* \"contracts/SimpleContract.sol\":338:352  owner = _owner */\n  0x0100\n  exp\n  dup2\n  sload\n  dup2\n  0xffffffffffffffffffffffffffffffffffffffff\n  mul\n  not\n  and\n  swap1\n  dup4\n  0xffffffffffffffffffffffffffffffffffffffff\n  and\n  mul\n  or\n  swap1\n  sstore\n  pop\n    /* \"contracts/SimpleContract.sol\":363:376  errorMessages */\n  0x05\n    /* \"contracts/SimpleContract.sol\":363:399  errorMessages.push(\"is not allowed\") */\n  dup1\n  0x01\n  dup2\n  sload\n  add\n  dup1\n  dup3\n  sstore\n  dup1\n  swap2\n  pop\n  pop\n  0x01\n  swap1\n  sub\n  swap1\n  0x00\n  mstore\n  keccak256(0x00, 0x20)\n  add\n  0x00\n  mload(0x40)\n  dup1\n  0x40\n  add\n  0x40\n  mstore\n  dup1\n  0x0e\n  dup2\n  mstore\n  0x20\n  add\n  0x6973206e6f7420616c6c6f776564000000000000000000000000000000000000\n  dup2\n  mstore\n  pop\n  swap1\n  swap2\n  swap1\n  swap2\n  pop\n  swap1\n  dup2\n  tag_7\n  swap2\n  swap1\n  tag_8\n  jump\t// in\ntag_7:\n  pop\n    /* \"contracts/SimpleContract.sol\":410:423  errorMessages */\n  0x05\n    /* \"contracts/SimpleContract.sol\":410:442  errorMessages.push(\"only owner\") */\n  dup1\n  0x01\n  dup2\n  sload\n  add\n  dup1\n  dup3\n  sstore\n  dup1\n  swap2\n  pop\n  pop\n  0x01\n  swap1\n  sub\n  swap1\n  0x00\n  mstore\n  keccak256(0x00, 0x20)\n  add\n  0x00\n  mload(0x40)\n  dup1\n  0x40\n  add\n  0x40\n  mstore\n  dup1\n  0x0a\n  dup2\n  mstore\n  0x20\n  add\n  0x6f6e6c79206f776e657200000000000000000000000000000000000000000000\n  dup2\n  mstore\n  pop\n  swap1\n  swap2\n  swap1\n  swap2\n  pop\n  swap1\n  dup2\n  tag_10\n  swap2\n  swap1\n  tag_8\n  jump\t// in\ntag_10:\n  pop\n    /* \"contracts/SimpleContract.sol\":453:466  errorMessages */\n  0x05\n    /* \"contracts/SimpleContract.sol\":453:486  errorMessages.push(\"placeholder\") */\n  dup1\n  0x01\n  dup2\n  sload\n  add\n  dup1\n  dup3\n  sstore\n  dup1\n  swap2\n  pop\n  pop\n  0x01\n  swap1\n  sub\n  swap1\n  0x00\n  mstore\n  keccak256(0x00, 0x20)\n  add\n  0x00\n  mload(0x40)\n  dup1\n  0x40\n  add\n  0x40\n  mstore\n  dup1\n  0x0b\n  dup2\n  mstore\n  0x20\n  add\n  0x706c616365686f6c646572000000000000000000000000000000000000000000\n  dup2\n  mstore\n  pop\n  swap1\n  swap2\n  swap1\n  swap2\n  pop\n  swap1\n  dup2\n  tag_12\n  swap2\n  swap1\n  tag_8\n  jump\t// in\ntag_12:\n  pop\n    /* \"contracts/SimpleContract.sol\":301:494  constructor(address _owner){... */\n  pop\n    /* \"contracts/SimpleContract.sol\":60:1315  contract SimpleContract {... */\n  jump(tag_13)\n    /* \"#utility.yul\":88:205   */\ntag_15:\n    /* \"#utility.yul\":197:198   */\n  0x00\n    /* \"#utility.yul\":194:195   */\n  dup1\n    /* \"#utility.yul\":187:199   */\n  revert\n    /* \"#utility.yul\":334:460   */\ntag_17:\n    /* \"#utility.yul\":371:378   */\n  0x00\n    /* \"#utility.yul\":411:453   */\n  0xffffffffffffffffffffffffffffffffffffffff\n    /* \"#utility.yul\":404:409   */\n  dup3\n    /* \"#utility.yul\":400:454   */\n  and\n    /* \"#utility.yul\":389:454   */\n  swap1\n  pop\n    /* \"#utility.yul\":334:460   */\n  swap2\n  swap1\n  pop\n  jump\t// out\n    /* \"#utility.yul\":466:562   */\ntag_18:\n    /* \"#utility.yul\":503:510   */\n  0x00\n    /* \"#utility.yul\":532:556   */\n  tag_47\n    /* \"#utility.yul\":550:555   */\n  dup3\n    /* \"#utility.yul\":532:556   */\n  tag_17\n  jump\t// in\ntag_47:\n    /* \"#utility.yul\":521:556   */\n  swap1\n  pop\n    /* \"#utility.yul\":466:562   */\n  swap2\n  swap1\n  pop\n  jump\t// out\n    /* \"#utility.yul\":568:690   */\ntag_19:\n    /* \"#utility.yul\":641:665   */\n  tag_49\n    /* \"#utility.yul\":659:664   */\n  dup2\n    /* \"#utility.yul\":641:665   */\n  tag_18\n  jump\t// in\ntag_49:\n    /* \"#utility.yul\":634:639   */\n  dup2\n    /* \"#utility.yul\":631:666   */\n  eq\n    /* \"#utility.yul\":621:684   */\n  tag_50\n  jumpi\n    /* \"#utility.yul\":680:681   */\n  0x00\n    /* \"#utility.yul\":677:678   */\n  dup1\n    /* \"#utility.yul\":670:682   */\n  revert\n    /* \"#utility.yul\":621:684   */\ntag_50:\n    /* \"#utility.yul\":568:690   */\n  pop\n  jump\t// out\n    /* \"#utility.yul\":696:839   */\ntag_20:\n    /* \"#utility.yul\":753:758   */\n  0x00\n    /* \"#utility.yul\":784:790   */\n  dup2\n    /* \"#utility.yul\":778:791   */\n  mload\n    /* \"#utility.yul\":769:791   */\n  swap1\n  pop\n    /* \"#utility.yul\":800:833   */\n  tag_52\n    /* \"#utility.yul\":827:832   */\n  dup2\n    /* \"#utility.yul\":800:833   */\n  tag_19\n  jump\t// in\ntag_52:\n    /* \"#utility.yul\":696:839   */\n  swap3\n  swap2\n  pop\n  pop\n  jump\t// out\n    /* \"#utility.yul\":845:1196   */\ntag_3:\n    /* \"#utility.yul\":915:921   */\n  0x00\n    /* \"#utility.yul\":964:966   */\n  0x20\n    /* \"#utility.yul\":952:961   */\n  dup3\n    /* \"#utility.yul\":943:950   */\n  dup5\n    /* \"#utility.yul\":939:962   */\n  sub\n    /* \"#utility.yul\":935:967   */\n  slt\n    /* \"#utility.yul\":932:1051   */\n  iszero\n  tag_54\n  jumpi\n    /* \"#utility.yul\":970:1049   */\n  tag_55\n  tag_15\n  jump\t// in\ntag_55:\n    /* \"#utility.yul\":932:1051   */\ntag_54:\n    /* \"#utility.yul\":1090:1091   */\n  0x00\n    /* \"#utility.yul\":1115:1179   */\n  tag_56\n    /* \"#utility.yul\":1171:1178   */\n  dup5\n    /* \"#utility.yul\":1162:1168   */\n  dup3\n    /* \"#utility.yul\":1151:1160   */\n  dup6\n    /* \"#utility.yul\":1147:1169   */\n  add\n    /* \"#utility.yul\":1115:1179   */\n  tag_20\n  jump\t// in\ntag_56:\n    /* \"#utility.yul\":1105:1179   */\n  swap2\n  pop\n    /* \"#utility.yul\":1061:1189   */\n  pop\n    /* \"#utility.yul\":845:1196   */\n  swap3\n  swap2\n  pop\n  pop\n  jump\t// out\n    /* \"#utility.yul\":1202:1301   */\ntag_21:\n    /* \"#utility.yul\":1254:1260   */\n  0x00\n    /* \"#utility.yul\":1288:1293   */\n  dup2\n    /* \"#utility.yul\":1282:1294   */\n  mload\n    /* \"#utility.yul\":1272:1294   */\n  swap1\n  pop\n    /* \"#utility.yul\":1202:1301   */\n  swap2\n  swap1\n  pop\n  jump\t// out\n    /* \"#utility.yul\":1307:1487   */\ntag_22:\n    /* \"#utility.yul\":1355:1432   */\n  0x4e487b7100000000000000000000000000000000000000000000000000000000\n    /* \"#utility.yul\":1352:1353   */\n  0x00\n    /* \"#utility.yul\":1345:1433   */\n  mstore\n    /* \"#utility.yul\":1452:1456   */\n  0x41\n    /* \"#utility.yul\":1449:1450   */\n  0x04\n    /* \"#utility.yul\":1442:1457   */\n  mstore\n    /* \"#utility.yul\":1476:1480   */\n  0x24\n    /* \"#utility.yul\":1473:1474   */\n  0x00\n    /* \"#utility.yul\":1466:1481   */\n  revert\n    /* \"#utility.yul\":1493:1673   */\ntag_23:\n    /* \"#utility.yul\":1541:1618   */\n  0x4e487b7100000000000000000000000000000000000000000000000000000000\n    /* \"#utility.yul\":1538:1539   */\n  0x00\n    /* \"#utility.yul\":1531:1619   */\n  mstore\n    /* \"#utility.yul\":1638:1642   */\n  0x22\n    /* \"#utility.yul\":1635:1636   */\n  0x04\n    /* \"#utility.yul\":1628:1643   */\n  mstore\n    /* \"#utility.yul\":1662:1666   */\n  0x24\n    /* \"#utility.yul\":1659:1660   */\n  0x00\n    /* \"#utility.yul\":1652:1667   */\n  revert\n    /* \"#utility.yul\":1679:1999   */\ntag_24:\n    /* \"#utility.yul\":1723:1729   */\n  0x00\n    /* \"#utility.yul\":1760:1761   */\n  0x02\n    /* \"#utility.yul\":1754:1758   */\n  dup3\n    /* \"#utility.yul\":1750:1762   */\n  div\n    /* \"#utility.yul\":1740:1762   */\n  swap1\n  pop\n    /* \"#utility.yul\":1807:1808   */\n  0x01\n    /* \"#utility.yul\":1801:1805   */\n  dup3\n    /* \"#utility.yul\":1797:1809   */\n  and\n    /* \"#utility.yul\":1828:1846   */\n  dup1\n    /* \"#utility.yul\":1818:1899   */\n  tag_61\n  jumpi\n    /* \"#utility.yul\":1884:1888   */\n  0x7f\n    /* \"#utility.yul\":1876:1882   */\n  dup3\n    /* \"#utility.yul\":1872:1889   */\n  and\n    /* \"#utility.yul\":1862:1889   */\n  swap2\n  pop\n    /* \"#utility.yul\":1818:1899   */\ntag_61:\n    /* \"#utility.yul\":1946:1948   */\n  0x20\n    /* \"#utility.yul\":1938:1944   */\n  dup3\n    /* \"#utility.yul\":1935:1949   */\n  lt\n    /* \"#utility.yul\":1915:1933   */\n  dup2\n    /* \"#utility.yul\":1912:1950   */\n  sub\n    /* \"#utility.yul\":1909:1993   */\n  tag_62\n  jumpi\n    /* \"#utility.yul\":1965:1983   */\n  tag_63\n  tag_23\n  jump\t// in\ntag_63:\n    /* \"#utility.yul\":1909:1993   */\ntag_62:\n    /* \"#utility.yul\":1730:1999   */\n  pop\n    /* \"#utility.yul\":1679:1999   */\n  swap2\n  swap1\n  pop\n  jump\t// out\n    /* \"#utility.yul\":2005:2146   */\ntag_25:\n    /* \"#utility.yul\":2054:2058   */\n  0x00\n    /* \"#utility.yul\":2077:2080   */\n  dup2\n    /* \"#utility.yul\":2069:2080   */\n  swap1\n  pop\n    /* \"#utility.yul\":2100:2103   */\n  dup2\n    /* \"#utility.yul\":2097:2098   */\n  0x00\n    /* \"#utility.yul\":2090:2104   */\n  mstore\n    /* \"#utility.yul\":2134:2138   */\n  0x20\n    /* \"#utility.yul\":2131:2132   */\n  0x00\n    /* \"#utility.yul\":2121:2139   */\n  keccak256\n    /* \"#utility.yul\":2113:2139   */\n  swap1\n  pop\n    /* \"#utility.yul\":2005:2146   */\n  swap2\n  swap1\n  pop\n  jump\t// out\n    /* \"#utility.yul\":2152:2245   */\ntag_26:\n    /* \"#utility.yul\":2189:2195   */\n  0x00\n    /* \"#utility.yul\":2236:2238   */\n  0x20\n    /* \"#utility.yul\":2231:2233   */\n  0x1f\n    /* \"#utility.yul\":2224:2229   */\n  dup4\n    /* \"#utility.yul\":2220:2234   */\n  add\n    /* \"#utility.yul\":2216:2239   */\n  div\n    /* \"#utility.yul\":2206:2239   */\n  swap1\n  pop\n    /* \"#utility.yul\":2152:2245   */\n  swap2\n  swap1\n  pop\n  jump\t// out\n    /* \"#utility.yul\":2251:2358   */\ntag_27:\n    /* \"#utility.yul\":2295:2303   */\n  0x00\n    /* \"#utility.yul\":2345:2350   */\n  dup3\n    /* \"#utility.yul\":2339:2343   */\n  dup3\n    /* \"#utility.yul\":2335:2351   */\n  shl\n    /* \"#utility.yul\":2314:2351   */\n  swap1\n  pop\n    /* \"#utility.yul\":2251:2358   */\n  swap3\n  swap2\n  pop\n  pop\n  jump\t// out\n    /* \"#utility.yul\":2364:2757   */\ntag_28:\n    /* \"#utility.yul\":2433:2439   */\n  0x00\n    /* \"#utility.yul\":2483:2484   */\n  0x08\n    /* \"#utility.yul\":2471:2481   */\n  dup4\n    /* \"#utility.yul\":2467:2485   */\n  mul\n    /* \"#utility.yul\":2506:2603   */\n  tag_68\n    /* \"#utility.yul\":2536:2602   */\n  0xffffffffffffffffffffffffffffffffffffffffffffffffffffffffffffffff\n    /* \"#utility.yul\":2525:2534   */\n  dup3\n    /* \"#utility.yul\":2506:2603   */\n  tag_27\n  jump\t// in\ntag_68:\n    /* \"#utility.yul\":2624:2663   */\n  tag_69\n    /* \"#utility.yul\":2654:2662   */\n  dup7\n    /* \"#utility.yul\":2643:2652   */\n  dup4\n    /* \"#utility.yul\":2624:2663   */\n  tag_27\n  jump\t// in\ntag_69:\n    /* \"#utility.yul\":2612:2663   */\n  swap6\n  pop\n    /* \"#utility.yul\":2696:2700   */\n  dup1\n    /* \"#utility.yul\":2692:2701   */\n  not\n    /* \"#utility.yul\":2685:2690   */\n  dup5\n    /* \"#utility.yul\":2681:2702   */\n  and\n    /* \"#utility.yul\":2672:2702   */\n  swap4\n  pop\n    /* \"#utility.yul\":2745:2749   */\n  dup1\n    /* \"#utility.yul\":2735:2743   */\n  dup7\n    /* \"#utility.yul\":2731:2750   */\n  and\n    /* \"#utility.yul\":2724:2729   */\n  dup5\n    /* \"#utility.yul\":2721:2751   */\n  or\n    /* \"#utility.yul\":2711:2751   */\n  swap3\n  pop\n    /* \"#utility.yul\":2440:2757   */\n  pop\n  pop\n    /* \"#utility.yul\":2364:2757   */\n  swap4\n  swap3\n  pop\n  pop\n  pop\n  jump\t// out\n    /* \"#utility.yul\":2763:2840   */\ntag_29:\n    /* \"#utility.yul\":2800:2807   */\n  0x00\n    /* \"#utility.yul\":2829:2834   */\n  dup2\n    /* \"#utility.yul\":2818:2834   */\n  swap1\n  pop\n    /* \"#utility.yul\":2763:2840   */\n  swap2\n  swap1\n  pop\n  jump\t// out\n    /* \"#utility.yul\":2846:2906   */\ntag_30:\n    /* \"#utility.yul\":2874:2877   */\n  0x00\n    /* \"#utility.yul\":2895:2900   */\n  dup2\n    /* \"#utility.yul\":2888:2900   */\n  swap1\n  pop\n    /* \"#utility.yul\":2846:2906   */\n  swap2\n  swap1\n  pop\n  jump\t// out\n    /* \"#utility.yul\":2912:3054   */\ntag_31:\n    /* \"#utility.yul\":2962:2971   */\n  0x00\n    /* \"#utility.yul\":2995:3048   */\n  tag_73\n    /* \"#utility.yul\":3013:3047   */\n  tag_74\n    /* \"#utility.yul\":3022:3046   */\n  tag_75\n    /* \"#utility.yul\":3040:3045   */\n  dup5\n    /* \"#utility.yul\":3022:3046   */\n  tag_29\n  jump\t// in\ntag_75:\n    /* \"#utility.yul\":3013:3047   */\n  tag_30\n  jump\t// in\ntag_74:\n    /* \"#utility.yul\":2995:3048   */\n  tag_29\n  jump\t// in\ntag_73:\n    /* \"#utility.yul\":2982:3048   */\n  swap1\n  pop\n    /* \"#utility.yul\":2912:3054   */\n  swap2\n  swap1\n  pop\n  jump\t// out\n    /* \"#utility.yul\":3060:3135   */\ntag_32:\n    /* \"#utility.yul\":3103:3106   */\n  0x00\n    /* \"#utility.yul\":3124:3129   */\n  dup2\n    /* \"#utility.yul\":3117:3129   */\n  swap1\n  pop\n    /* \"#utility.yul\":3060:3135   */\n  swap2\n  swap1\n  pop\n  jump\t// out\n    /* \"#utility.yul\":3141:3410   */\ntag_33:\n    /* \"#utility.yul\":3251:3290   */\n  tag_78\n    /* \"#utility.yul\":3282:3289   */\n  dup4\n    /* \"#utility.yul\":3251:3290   */\n  tag_31\n  jump\t// in\ntag_78:\n    /* \"#utility.yul\":3312:3403   */\n  tag_79\n    /* \"#utility.yul\":3361:3402   */\n  tag_80\n    /* \"#utility.yul\":3385:3401   */\n  dup3\n    /* \"#utility.yul\":3361:3402   */\n  tag_32\n  jump\t// in\ntag_80:\n    /* \"#utility.yul\":3353:3359   */\n  dup5\n    /* \"#utility.yul\":3346:3350   */\n  dup5\n    /* \"#utility.yul\":3340:3351   */\n  sload\n    /* \"#utility.yul\":3312:3403   */\n  tag_28\n  jump\t// in\ntag_79:\n    /* \"#utility.yul\":3306:3310   */\n  dup3\n    /* \"#utility.yul\":3299:3404   */\n  sstore\n    /* \"#utility.yul\":3217:3410   */\n  pop\n    /* \"#utility.yul\":3141:3410   */\n  pop\n  pop\n  pop\n  jump\t// out\n    /* \"#utility.yul\":3416:3489   */\ntag_34:\n    /* \"#utility.yul\":3461:3464   */\n  0x00\n    /* \"#utility.yul\":3416:3489   */\n  swap1\n  jump\t// out\n    /* \"#utility.yul\":3495:3684   */\ntag_35:\n    /* \"#utility.yul\":3572:3604   */\n  tag_83\n  tag_34\n  jump\t// in\ntag_83:\n    /* \"#utility.yul\":3613:3678   */\n  tag_84\n    /* \"#utility.yul\":3671:3677   */\n  dup2\n    /* \"#utility.yul\":3663:3669   */\n  dup5\n    /* \"#utility.yul\":3657:3661   */\n  dup5\n    /* \"#utility.yul\":3613:3678   */\n  tag_33\n  jump\t// in\ntag_84:\n    /* \"#utility.yul\":3548:3684   */\n  pop\n    /* \"#utility.yul\":3495:3684   */\n  pop\n  pop\n  jump\t// out\n    /* \"#utility.yul\":3690:3876   */\ntag_36:\n    /* \"#utility.yul\":3750:3870   */\ntag_86:\n    /* \"#utility.yul\":3767:3770   */\n  dup2\n    /* \"#utility.yul\":3760:3765   */\n  dup2\n    /* \"#utility.yul\":3757:3771   */\n  lt\n    /* \"#utility.yul\":3750:3870   */\n  iszero\n  tag_88\n  jumpi\n    /* \"#utility.yul\":3821:3860   */\n  tag_89\n    /* \"#utility.yul\":3858:3859   */\n  0x00\n    /* \"#utility.yul\":3851:3856   */\n  dup3\n    /* \"#utility.yul\":3821:3860   */\n  tag_35\n  jump\t// in\ntag_89:\n    /* \"#utility.yul\":3794:3795   */\n  0x01\n    /* \"#utility.yul\":3787:3792   */\n  dup2\n    /* \"#utility.yul\":3783:3796   */\n  add\n    /* \"#utility.yul\":3774:3796   */\n  swap1\n  pop\n    /* \"#utility.yul\":3750:3870   */\n  jump(tag_86)\ntag_88:\n    /* \"#utility.yul\":3690:3876   */\n  pop\n  pop\n  jump\t// out\n    /* \"#utility.yul\":3882:4425   */\ntag_37:\n    /* \"#utility.yul\":3983:3985   */\n  0x1f\n    /* \"#utility.yul\":3978:3981   */\n  dup3\n    /* \"#utility.yul\":3975:3986   */\n  gt\n    /* \"#utility.yul\":3972:4418   */\n  iszero\n  tag_91\n  jumpi\n    /* \"#utility.yul\":4017:4055   */\n  tag_92\n    /* \"#utility.yul\":4049:4054   */\n  dup2\n    /* \"#utility.yul\":4017:4055   */\n  tag_25\n  jump\t// in\ntag_92:\n    /* \"#utility.yul\":4101:4130   */\n  tag_93\n    /* \"#utility.yul\":4119:4129   */\n  dup5\n    /* \"#utility.yul\":4101:4130   */\n  tag_26\n  jump\t// in\ntag_93:\n    /* \"#utility.yul\":4091:4099   */\n  dup2\n    /* \"#utility.yul\":4087:4131   */\n  add\n    /* \"#utility.yul\":4284:4286   */\n  0x20\n    /* \"#utility.yul\":4272:4282   */\n  dup6\n    /* \"#utility.yul\":4269:4287   */\n  lt\n    /* \"#utility.yul\":4266:4315   */\n  iszero\n  tag_94\n  jumpi\n    /* \"#utility.yul\":4305:4313   */\n  dup2\n    /* \"#utility.yul\":4290:4313   */\n  swap1\n  pop\n    /* \"#utility.yul\":4266:4315   */\ntag_94:\n    /* \"#utility.yul\":4328:4408   */\n  tag_95\n    /* \"#utility.yul\":4384:4406   */\n  tag_96\n    /* \"#utility.yul\":4402:4405   */\n  dup6\n    /* \"#utility.yul\":4384:4406   */\n  tag_26\n  jump\t// in\ntag_96:\n    /* \"#utility.yul\":4374:4382   */\n  dup4\n    /* \"#utility.yul\":4370:4407   */\n  add\n    /* \"#utility.yul\":4357:4368   */\n  dup3\n    /* \"#utility.yul\":4328:4408   */\n  tag_36\n  jump\t// in\ntag_95:\n    /* \"#utility.yul\":3987:4418   */\n  pop\n  pop\n    /* \"#utility.yul\":3972:4418   */\ntag_91:\n    /* \"#utility.yul\":3882:4425   */\n  pop\n  pop\n  pop\n  jump\t// out\n    /* \"#utility.yul\":4431:4548   */\ntag_38:\n    /* \"#utility.yul\":4485:4493   */\n  0x00\n    /* \"#utility.yul\":4535:4540   */\n  dup3\n    /* \"#utility.yul\":4529:4533   */\n  dup3\n    /* \"#utility.yul\":4525:4541   */\n  shr\n    /* \"#utility.yul\":4504:4541   */\n  swap1\n  pop\n    /* \"#utility.yul\":4431:4548   */\n  swap3\n  swap2\n  pop\n  pop\n  jump\t// out\n    /* \"#utility.yul\":4554:4723   */\ntag_39:\n    /* \"#utility.yul\":4598:4604   */\n  0x00\n    /* \"#utility.yul\":4631:4682   */\n  tag_99\n    /* \"#utility.yul\":4679:4680   */\n  0x00\n    /* \"#utility.yul\":4675:4681   */\n  not\n    /* \"#utility.yul\":4667:4672   */\n  dup5\n    /* \"#utility.yul\":4664:4665   */\n  0x08\n    /* \"#utility.yul\":4660:4673   */\n  mul\n    /* \"#utility.yul\":4631:4682   */\n  tag_38\n  jump\t// in\ntag_99:\n    /* \"#utility.yul\":4627:4683   */\n  not\n    /* \"#utility.yul\":4712:4716   */\n  dup1\n    /* \"#utility.yul\":4706:4710   */\n  dup4\n    /* \"#utility.yul\":4702:4717   */\n  and\n    /* \"#utility.yul\":4692:4717   */\n  swap2\n  pop\n    /* \"#utility.yul\":4605:4723   */\n  pop\n    /* \"#utility.yul\":4554:4723   */\n  swap3\n  swap2\n  pop\n  pop\n  jump\t// out\n    /* \"#utility.yul\":4728:5023   */\ntag_40:\n    /* \"#utility.yul\":4804:4808   */\n  0x00\n    /* \"#utility.yul\":4950:4979   */\n  tag_101\n    /* \"#utility.yul\":4975:4978   */\n  dup4\n    /* \"#utility.yul\":4969:4973   */\n  dup4\n    /* \"#utility.yul\":4950:4979   */\n  tag_39\n  jump\t// in\ntag_101:\n    /* \"#utility.yul\":4942:4979   */\n  swap2\n  pop\n    /* \"#utility.yul\":5012:5015   */\n  dup3\n    /* \"#utility.yul\":5009:5010   */\n  0x02\n    /* \"#utility.yul\":5005:5016   */\n  mul\n    /* \"#utility.yul\":4999:5003   */\n  dup3\n    /* \"#utility.yul\":4996:5017   */\n  or\n    /* \"#utility.yul\":4988:5017   */\n  swap1\n  pop\n    /* \"#utility.yul\":4728:5023   */\n  swap3\n  swap2\n  pop\n  pop\n  jump\t// out\n    /* \"#utility.yul\":5028:6423   */\ntag_8:\n    /* \"#utility.yul\":5145:5182   */\n  tag_103\n    /* \"#utility.yul\":5178:5181   */\n  dup3\n    /* \"#utility.yul\":5145:5182   */\n  tag_21\n  jump\t// in\ntag_103:\n    /* \"#utility.yul\":5247:5265   */\n  0xffffffffffffffff\n    /* \"#utility.yul\":5239:5245   */\n  dup2\n    /* \"#utility.yul\":5236:5266   */\n  gt\n    /* \"#utility.yul\":5233:5289   */\n  iszero\n  tag_104\n  jumpi\n    /* \"#utility.yul\":5269:5287   */\n  tag_105\n  tag_22\n  jump\t// in\ntag_105:\n    /* \"#utility.yul\":5233:5289   */\ntag_104:\n    /* \"#utility.yul\":5313:5351   */\n  tag_106\n    /* \"#utility.yul\":5345:5349   */\n  dup3\n    /* \"#utility.yul\":5339:5350   */\n  sload\n    /* \"#utility.yul\":5313:5351   */\n  tag_24\n  jump\t// in\ntag_106:\n    /* \"#utility.yul\":5398:5465   */\n  tag_107\n    /* \"#utility.yul\":5458:5464   */\n  dup3\n    /* \"#utility.yul\":5450:5456   */\n  dup3\n    /* \"#utility.yul\":5444:5448   */\n  dup6\n    /* \"#utility.yul\":5398:5465   */\n  tag_37\n  jump\t// in\ntag_107:\n    /* \"#utility.yul\":5492:5493   */\n  0x00\n    /* \"#utility.yul\":5516:5520   */\n  0x20\n    /* \"#utility.yul\":5503:5520   */\n  swap1\n  pop\n    /* \"#utility.yul\":5548:5550   */\n  0x1f\n    /* \"#utility.yul\":5540:5546   */\n  dup4\n    /* \"#utility.yul\":5537:5551   */\n  gt\n    /* \"#utility.yul\":5565:5566   */\n  0x01\n    /* \"#utility.yul\":5560:6178   */\n  dup2\n  eq\n  tag_109\n  jumpi\n    /* \"#utility.yul\":6222:6223   */\n  0x00\n    /* \"#utility.yul\":6239:6245   */\n  dup5\n    /* \"#utility.yul\":6236:6313   */\n  iszero\n  tag_110\n  jumpi\n    /* \"#utility.yul\":6288:6297   */\n  dup3\n    /* \"#utility.yul\":6283:6286   */\n  dup8\n    /* \"#utility.yul\":6279:6298   */\n  add\n    /* \"#utility.yul\":6273:6299   */\n  mload\n    /* \"#utility.yul\":6264:6299   */\n  swap1\n  pop\n    /* \"#utility.yul\":6236:6313   */\ntag_110:\n    /* \"#utility.yul\":6339:6406   */\n  tag_111\n    /* \"#utility.yul\":6399:6405   */\n  dup6\n    /* \"#utility.yul\":6392:6397   */\n  dup3\n    /* \"#utility.yul\":6339:6406   */\n  tag_40\n  jump\t// in\ntag_111:\n    /* \"#utility.yul\":6333:6337   */\n  dup7\n    /* \"#utility.yul\":6326:6407   */\n  sstore\n    /* \"#utility.yul\":6195:6417   */\n  pop\n    /* \"#utility.yul\":5530:6417   */\n  jump(tag_108)\n    /* \"#utility.yul\":5560:6178   */\ntag_109:\n    /* \"#utility.yul\":5612:5616   */\n  0x1f\n    /* \"#utility.yul\":5608:5617   */\n  not\n    /* \"#utility.yul\":5600:5606   */\n  dup5\n    /* \"#utility.yul\":5596:5618   */\n  and\n    /* \"#utility.yul\":5646:5683   */\n  tag_112\n    /* \"#utility.yul\":5678:5682   */\n  dup7\n    /* \"#utility.yul\":5646:5683   */\n  tag_25\n  jump\t// in\ntag_112:\n    /* \"#utility.yul\":5705:5706   */\n  0x00\n    /* \"#utility.yul\":5719:5927   */\ntag_113:\n    /* \"#utility.yul\":5733:5740   */\n  dup3\n    /* \"#utility.yul\":5730:5731   */\n  dup2\n    /* \"#utility.yul\":5727:5741   */\n  lt\n    /* \"#utility.yul\":5719:5927   */\n  iszero\n  tag_115\n  jumpi\n    /* \"#utility.yul\":5812:5821   */\n  dup5\n    /* \"#utility.yul\":5807:5810   */\n  dup10\n    /* \"#utility.yul\":5803:5822   */\n  add\n    /* \"#utility.yul\":5797:5823   */\n  mload\n    /* \"#utility.yul\":5789:5795   */\n  dup3\n    /* \"#utility.yul\":5782:5824   */\n  sstore\n    /* \"#utility.yul\":5863:5864   */\n  0x01\n    /* \"#utility.yul\":5855:5861   */\n  dup3\n    /* \"#utility.yul\":5851:5865   */\n  add\n    /* \"#utility.yul\":5841:5865   */\n  swap2\n  pop\n    /* \"#utility.yul\":5910:5912   */\n  0x20\n    /* \"#utility.yul\":5899:5908   */\n  dup6\n    /* \"#utility.yul\":5895:5913   */\n  add\n    /* \"#utility.yul\":5882:5913   */\n  swap5\n  pop\n    /* \"#utility.yul\":5756:5760   */\n  0x20\n    /* \"#utility.yul\":5753:5754   */\n  dup2\n    /* \"#utility.yul\":5749:5761   */\n  add\n    /* \"#utility.yul\":5744:5761   */\n  swap1\n  pop\n    /* \"#utility.yul\":5719:5927   */\n  jump(tag_113)\ntag_115:\n    /* \"#utility.yul\":5955:5961   */\n  dup7\n    /* \"#utility.yul\":5946:5953   */\n  dup4\n    /* \"#utility.yul\":5943:5962   */\n  lt\n    /* \"#utility.yul\":5940:6119   */\n  iszero\n  tag_116\n  jumpi\n    /* \"#utility.yul\":6013:6022   */\n  dup5\n    /* \"#utility.yul\":6008:6011   */\n  dup10\n    /* \"#utility.yul\":6004:6023   */\n  add\n    /* \"#utility.yul\":5998:6024   */\n  mload\n    /* \"#utility.yul\":6056:6104   */\n  tag_117\n    /* \"#utility.yul\":6098:6102   */\n  0x1f\n    /* \"#utility.yul\":6090:6096   */\n  dup10\n    /* \"#utility.yul\":6086:6103   */\n  and\n    /* \"#utility.yul\":6075:6084   */\n  dup3\n    /* \"#utility.yul\":6056:6104   */\n  tag_39\n  jump\t// in\ntag_117:\n    /* \"#utility.yul\":6048:6054   */\n  dup4\n    /* \"#utility.yul\":6041:6105   */\n  sstore\n    /* \"#utility.yul\":5963:6119   */\n  pop\n    /* \"#utility.yul\":5940:6119   */\ntag_116:\n    /* \"#utility.yul\":6165:6166   */\n  0x01\n    /* \"#utility.yul\":6161:6162   */\n  0x02\n    /* \"#utility.yul\":6153:6159   */\n  dup9\n    /* \"#utility.yul\":6149:6163   */\n  mul\n    /* \"#utility.yul\":6145:6167   */\n  add\n    /* \"#utility.yul\":6139:6143   */\n  dup9\n    /* \"#utility.yul\":6132:6168   */\n  sstore\n    /* \"#utility.yul\":5567:6178   */\n  pop\n  pop\n  pop\n    /* \"#utility.yul\":5530:6417   */\ntag_108:\n  pop\n    /* \"#utility.yul\":5120:6423   */\n  pop\n  pop\n  pop\n    /* \"#utility.yul\":5028:6423   */\n  pop\n  pop\n  jump\t// out\n    /* \"contracts/SimpleContract.sol\":60:1315  contract SimpleContract {... */\ntag_13:\n  dataSize(sub_0)\n  dup1\n  dataOffset(sub_0)\n  0x00\n  codecopy\n  0x00\n  return\nstop\n\nsub_0: assembly {\n        /* \"contracts/SimpleContract.sol\":60:1315  contract SimpleContract {... */\n      mstore(0x40, 0x80)\n      callvalue\n      dup1\n      iszero\n      tag_1\n      jumpi\n      0x00\n      dup1\n      revert\n    tag_1:\n      pop\n      jumpi(tag_2, lt(calldatasize, 0x04))\n      shr(0xe0, calldataload(0x00))\n      dup1\n      0x8da5cb5b\n      gt\n      tag_15\n      jumpi\n      dup1\n      0x8da5cb5b\n      eq\n      tag_9\n      jumpi\n      dup1\n      0xbe7cb506\n      eq\n      tag_10\n      jumpi\n      dup1\n      0xc539ab78\n      eq\n      tag_11\n      jumpi\n      dup1\n      0xdd62ed3e\n      eq\n      tag_12\n      jumpi\n      dup1\n      0xf6ace8d7\n      eq\n      tag_13\n      jumpi\n      dup1\n      0xffac3b1d\n      eq\n      tag_14\n      jumpi\n      jump(tag_2)\n    tag_15:\n      dup1\n      0x06661abd\n      eq\n      tag_3\n      jumpi\n      dup1\n      0x19e1fca4\n      eq\n      tag_4\n      jumpi\n      dup1\n      0x2babac22\n      eq\n      tag_5\n      jumpi\n      dup1\n      0x5f3d8f4a\n      eq\n      tag_6\n      jumpi\n      dup1\n      0x702051f0\n      eq\n      tag_7\n      jumpi\n      dup1\n      0x7cf5dab0\n      eq\n      tag_8\n      jumpi\n    tag_2:\n      0x00\n      dup1\n      revert\n        /* \"contracts/SimpleContract.sol\":117:134  uint public count */\n    tag_3:\n      tag_16\n      tag_17\n      jump\t// in\n    tag_16:\n      mload(0x40)\n      tag_18\n      swap2\n      swap1\n      tag_19\n      jump\t// in\n    tag_18:\n      mload(0x40)\n      dup1\n      swap2\n      sub\n      swap1\n      return\n        /* \"contracts/SimpleContract.sol\":91:110  bool public allowed */\n    tag_4:\n      tag_20\n      tag_21\n      jump\t// in\n    tag_20:\n      mload(0x40)\n      tag_22\n      swap2\n      swap1\n      tag_23\n      jump\t// in\n    tag_22:\n      mload(0x40)\n      dup1\n      swap2\n      sub\n      swap1\n      return\n        /* \"contracts/SimpleContract.sol\":616:693  function setAllowed (bool _allowed) public{... */\n    tag_5:\n      tag_24\n      0x04\n      dup1\n      calldatasize\n      sub\n      dup2\n      add\n      swap1\n      tag_25\n      swap2\n      swap1\n      tag_26\n      jump\t// in\n    tag_25:\n      tag_27\n      jump\t// in\n    tag_24:\n      stop\n        /* \"contracts/SimpleContract.sol\":141:163  int public signedCount */\n    tag_6:\n      tag_28\n      tag_29\n      jump\t// in\n    tag_28:\n      mload(0x40)\n      tag_30\n      swap2\n      swap1\n      tag_31\n      jump\t// in\n    tag_30:\n      mload(0x40)\n      dup1\n      swap2\n      sub\n      swap1\n      return\n        /* \"contracts/SimpleContract.sol\":500:608  function getSizeOfErrorMessages() public view returns(uint256){... */\n    tag_7:\n      tag_32\n      tag_33\n      jump\t// in\n    tag_32:\n      mload(0x40)\n      tag_34\n      swap2\n      swap1\n      tag_19\n      jump\t// in\n    tag_34:\n      mload(0x40)\n      dup1\n      swap2\n      sub\n      swap1\n      return\n        /* \"contracts/SimpleContract.sol\":985:1083  function increment(uint _increment) public  isAllowed{... */\n    tag_8:\n      tag_35\n      0x04\n      dup1\n      calldatasize\n      sub\n      dup2\n      add\n      swap1\n      tag_36\n      swap2\n      swap1\n      tag_37\n      jump\t// in\n    tag_36:\n      tag_38\n      jump\t// in\n    tag_35:\n      stop\n        /* \"contracts/SimpleContract.sol\":170:190  address public owner */\n    tag_9:\n      tag_39\n      tag_40\n      jump\t// in\n    tag_39:\n      mload(0x40)\n      tag_41\n      swap2\n      swap1\n      tag_42\n      jump\t// in\n    tag_41:\n      mload(0x40)\n      dup1\n      swap2\n      sub\n      swap1\n      return\n        /* \"contracts/SimpleContract.sol\":1091:1192  function signedIncrement (int _increment) public{... */\n    tag_10:\n      tag_43\n      0x04\n      dup1\n      calldatasize\n      sub\n      dup2\n      add\n      swap1\n      tag_44\n      swap2\n      swap1\n      tag_45\n      jump\t// in\n    tag_44:\n      tag_46\n      jump\t// in\n    tag_43:\n      stop\n        /* \"contracts/SimpleContract.sol\":263:292  string[] public errorMessages */\n    tag_11:\n      tag_47\n      0x04\n      dup1\n      calldatasize\n      sub\n      dup2\n      add\n      swap1\n      tag_48\n      swap2\n      swap1\n      tag_37\n      jump\t// in\n    tag_48:\n      tag_49\n      jump\t// in\n    tag_47:\n      mload(0x40)\n      tag_50\n      swap2\n      swap1\n      tag_51\n      jump\t// in\n    tag_50:\n      mload(0x40)\n      dup1\n      swap2\n      sub\n      swap1\n      return\n        /* \"contracts/SimpleContract.sol\":197:256  mapping(address => mapping(address=>bool)) public allowance */\n    tag_12:\n      tag_52\n      0x04\n      dup1\n      calldatasize\n      sub\n      dup2\n      add\n      swap1\n      tag_53\n      swap2\n      swap1\n      tag_54\n      jump\t// in\n    tag_53:\n      tag_55\n      jump\t// in\n    tag_52:\n      mload(0x40)\n      tag_56\n      swap2\n      swap1\n      tag_23\n      jump\t// in\n    tag_56:\n      mload(0x40)\n      dup1\n      swap2\n      sub\n      swap1\n      return\n        /* \"contracts/SimpleContract.sol\":1200:1312  function assignAllowance (address _address) public onlyOwner{... */\n    tag_13:\n      tag_57\n      0x04\n      dup1\n      calldatasize\n      sub\n      dup2\n      add\n      swap1\n      tag_58\n      swap2\n      swap1\n      tag_59\n      jump\t// in\n    tag_58:\n      tag_60\n      jump\t// in\n    tag_57:\n      stop\n        /* \"contracts/SimpleContract.sol\":920:977  function oneIncrement() public {... */\n    tag_14:\n      tag_61\n      tag_62\n      jump\t// in\n    tag_61:\n      stop\n        /* \"contracts/SimpleContract.sol\":117:134  uint public count */\n    tag_17:\n      sload(0x01)\n      dup2\n      jump\t// out\n        /* \"contracts/SimpleContract.sol\":91:110  bool public allowed */\n    tag_21:\n      0x00\n      dup1\n      sload\n      swap1\n      0x0100\n      exp\n      swap1\n      div\n      0xff\n      and\n      dup2\n      jump\t// out\n        /* \"contracts/SimpleContract.sol\":616:693  function setAllowed (bool _allowed) public{... */\n    tag_27:\n        /* \"contracts/SimpleContract.sol\":677:685  _allowed */\n      dup1\n        /* \"contracts/SimpleContract.sol\":669:676  allowed */\n      0x00\n      dup1\n        /* \"contracts/SimpleContract.sol\":669:685  allowed=_allowed */\n      0x0100\n      exp\n      dup2\n      sload\n      dup2\n      0xff\n      mul\n      not\n      and\n      swap1\n      dup4\n      iszero\n      iszero\n      mul\n      or\n      swap1\n      sstore\n      pop\n        /* \"contracts/SimpleContract.sol\":616:693  function setAllowed (bool _allowed) public{... */\n      pop\n      jump\t// out\n        /* \"contracts/SimpleContract.sol\":141:163  int public signedCount */\n    tag_29:\n      sload(0x02)\n      dup2\n      jump\t// out\n        /* \"contracts/SimpleContract.sol\":500:608  function getSizeOfErrorMessages() public view returns(uint256){... */\n    tag_33:\n        /* \"contracts/SimpleContract.sol\":554:561  uint256 */\n      0x00\n        /* \"contracts/SimpleContract.sol\":580:593  errorMessages */\n      0x05\n        /* \"contracts/SimpleContract.sol\":580:600  errorMessages.length */\n      dup1\n      sload\n      swap1\n      pop\n        /* \"contracts/SimpleContract.sol\":573:600  return errorMessages.length */\n      swap1\n      pop\n        /* \"contracts/SimpleContract.sol\":500:608  function getSizeOfErrorMessages() public view returns(uint256){... */\n      swap1\n      jump\t// out\n        /* \"contracts/SimpleContract.sol\":985:1083  function increment(uint _increment) public  isAllowed{... */\n    tag_38:\n        /* \"contracts/SimpleContract.sol\":741:750  allowance */\n      0x04\n        /* \"contracts/SimpleContract.sol\":741:757  allowance[owner] */\n      0x00\n        /* \"contracts/SimpleContract.sol\":751:756  owner */\n      0x03\n      0x00\n      swap1\n      sload\n      swap1\n      0x0100\n      exp\n      swap1\n      div\n      0xffffffffffffffffffffffffffffffffffffffff\n      and\n        /* \"contracts/SimpleContract.sol\":741:757  allowance[owner] */\n      0xffffffffffffffffffffffffffffffffffffffff\n      and\n      0xffffffffffffffffffffffffffffffffffffffff\n      and\n      dup2\n      mstore\n      0x20\n      add\n      swap1\n      dup2\n      mstore\n      0x20\n      add\n      0x00\n      keccak256\n        /* \"contracts/SimpleContract.sol\":741:769  allowance[owner][msg.sender] */\n      0x00\n        /* \"contracts/SimpleContract.sol\":758:768  msg.sender */\n      caller\n        /* \"contracts/SimpleContract.sol\":741:769  allowance[owner][msg.sender] */\n      0xffffffffffffffffffffffffffffffffffffffff\n      and\n      0xffffffffffffffffffffffffffffffffffffffff\n      and\n      dup2\n      mstore\n      0x20\n      add\n      swap1\n      dup2\n      mstore\n      0x20\n      add\n      0x00\n      keccak256\n      0x00\n      swap1\n      sload\n      swap1\n      0x0100\n      exp\n      swap1\n      div\n      0xff\n      and\n        /* \"contracts/SimpleContract.sol\":770:783  errorMessages */\n      0x05\n        /* \"contracts/SimpleContract.sol\":784:785  0 */\n      0x00\n        /* \"contracts/SimpleContract.sol\":770:786  errorMessages[0] */\n      dup2\n      sload\n      dup2\n      lt\n      tag_66\n      jumpi\n      tag_67\n      tag_68\n      jump\t// in\n    tag_67:\n    tag_66:\n      swap1\n      0x00\n      mstore\n      keccak256(0x00, 0x20)\n      add\n        /* \"contracts/SimpleContract.sol\":733:787  require(allowance[owner][msg.sender],errorMessages[0]) */\n      swap1\n      tag_70\n      jumpi\n      mload(0x40)\n      0x08c379a000000000000000000000000000000000000000000000000000000000\n      dup2\n      mstore\n      0x04\n      add\n      tag_71\n      swap2\n      swap1\n      tag_72\n      jump\t// in\n    tag_71:\n      mload(0x40)\n      dup1\n      swap2\n      sub\n      swap1\n      revert\n    tag_70:\n      pop\n        /* \"contracts/SimpleContract.sol\":1065:1075  _increment */\n      dup1\n        /* \"contracts/SimpleContract.sol\":1057:1062  count */\n      sload(0x01)\n        /* \"contracts/SimpleContract.sol\":1057:1075  count + _increment */\n      tag_74\n      swap2\n      swap1\n      tag_75\n      jump\t// in\n    tag_74:\n        /* \"contracts/SimpleContract.sol\":1049:1054  count */\n      0x01\n        /* \"contracts/SimpleContract.sol\":1049:1075  count = count + _increment */\n      dup2\n      swap1\n      sstore\n      pop\n        /* \"contracts/SimpleContract.sol\":985:1083  function increment(uint _increment) public  isAllowed{... */\n      pop\n      jump\t// out\n        /* \"contracts/SimpleContract.sol\":170:190  address public owner */\n    tag_40:\n      0x03\n      0x00\n      swap1\n      sload\n      swap1\n      0x0100\n      exp\n      swap1\n      div\n      0xffffffffffffffffffffffffffffffffffffffff\n      and\n      dup2\n      jump\t// out\n        /* \"contracts/SimpleContract.sol\":1091:1192  function signedIncrement (int _increment) public{... */\n    tag_46:\n        /* \"contracts/SimpleContract.sol\":1174:1184  _increment */\n      dup1\n        /* \"contracts/SimpleContract.sol\":1162:1173  signedCount */\n      sload(0x02)\n        /* \"contracts/SimpleContract.sol\":1162:1184  signedCount+_increment */\n      tag_77\n      swap2\n      swap1\n      tag_78\n      jump\t// in\n    tag_77:\n        /* \"contracts/SimpleContract.sol\":1150:1161  signedCount */\n      0x02\n        /* \"contracts/SimpleContract.sol\":1150:1184  signedCount=signedCount+_increment */\n      dup2\n      swap1\n      sstore\n      pop\n        /* \"contracts/SimpleContract.sol\":1091:1192  function signedIncrement (int _increment) public{... */\n      pop\n      jump\t// out\n        /* \"contracts/SimpleContract.sol\":263:292  string[] public errorMessages */\n    tag_49:\n      0x05\n      dup2\n      dup2\n      sload\n      dup2\n      lt\n      tag_79\n      jumpi\n      0x00\n      dup1\n      revert\n    tag_79:\n      swap1\n      0x00\n      mstore\n      keccak256(0x00, 0x20)\n      add\n      0x00\n      swap2\n      pop\n      swap1\n      pop\n      dup1\n      sload\n      tag_81\n      swap1\n      tag_82\n      jump\t// in\n    tag_81:\n      dup1\n      0x1f\n      add\n      0x20\n      dup1\n      swap2\n      div\n      mul\n      0x20\n      add\n      mload(0x40)\n      swap1\n      dup2\n      add\n      0x40\n      mstore\n      dup1\n      swap3\n      swap2\n      swap1\n      dup2\n      dup2\n      mstore\n      0x20\n      add\n      dup3\n      dup1\n      sload\n      tag_83\n      swap1\n      tag_82\n      jump\t// in\n    tag_83:\n      dup1\n      iszero\n      tag_84\n      jumpi\n      dup1\n      0x1f\n      lt\n      tag_85\n      jumpi\n      0x0100\n      dup1\n      dup4\n      sload\n      div\n      mul\n      dup4\n      mstore\n      swap2\n      0x20\n      add\n      swap2\n      jump(tag_84)\n    tag_85:\n      dup3\n      add\n      swap2\n      swap1\n      0x00\n      mstore\n      keccak256(0x00, 0x20)\n      swap1\n    tag_86:\n      dup2\n      sload\n      dup2\n      mstore\n      swap1\n      0x01\n      add\n      swap1\n      0x20\n      add\n      dup1\n      dup4\n      gt\n      tag_86\n      jumpi\n      dup3\n      swap1\n      sub\n      0x1f\n      and\n      dup3\n      add\n      swap2\n    tag_84:\n      pop\n      pop\n      pop\n      pop\n      pop\n      dup2\n      jump\t// out\n        /* \"contracts/SimpleContract.sol\":197:256  mapping(address => mapping(address=>bool)) public allowance */\n    tag_55:\n      mstore(0x20, 0x04)\n      dup2\n      0x00\n      mstore\n      mstore(0x20, keccak256(0x00, 0x40))\n      dup1\n      0x00\n      mstore\n      keccak256(0x00, 0x40)\n      0x00\n      swap2\n      pop\n      swap2\n      pop\n      swap1\n      sload\n      swap1\n      0x0100\n      exp\n      swap1\n      div\n      0xff\n      and\n      dup2\n      jump\t// out\n        /* \"contracts/SimpleContract.sol\":1200:1312  function assignAllowance (address _address) public onlyOwner{... */\n    tag_60:\n        /* \"contracts/SimpleContract.sol\":864:874  msg.sender */\n      caller\n        /* \"contracts/SimpleContract.sol\":855:874  owner == msg.sender */\n      0xffffffffffffffffffffffffffffffffffffffff\n      and\n        /* \"contracts/SimpleContract.sol\":855:860  owner */\n      0x03\n      0x00\n      swap1\n      sload\n      swap1\n      0x0100\n      exp\n      swap1\n      div\n      0xffffffffffffffffffffffffffffffffffffffff\n      and\n        /* \"contracts/SimpleContract.sol\":855:874  owner == msg.sender */\n      0xffffffffffffffffffffffffffffffffffffffff\n      and\n      eq\n        /* \"contracts/SimpleContract.sol\":875:888  errorMessages */\n      0x05\n        /* \"contracts/SimpleContract.sol\":889:890  1 */\n      0x01\n        /* \"contracts/SimpleContract.sol\":875:891  errorMessages[1] */\n      dup2\n      sload\n      dup2\n      lt\n      tag_88\n      jumpi\n      tag_89\n      tag_68\n      jump\t// in\n    tag_89:\n    tag_88:\n      swap1\n      0x00\n      mstore\n      keccak256(0x00, 0x20)\n      add\n        /* \"contracts/SimpleContract.sol\":847:892  require(owner == msg.sender,errorMessages[1]) */\n      swap1\n      tag_91\n      jumpi\n      mload(0x40)\n      0x08c379a000000000000000000000000000000000000000000000000000000000\n      dup2\n      mstore\n      0x04\n      add\n      tag_92\n      swap2\n      swap1\n      tag_72\n      jump\t// in\n    tag_92:\n      mload(0x40)\n      dup1\n      swap2\n      sub\n      swap1\n      revert\n    tag_91:\n      pop\n        /* \"contracts/SimpleContract.sol\":1300:1304  true */\n      0x01\n        /* \"contracts/SimpleContract.sol\":1271:1280  allowance */\n      0x04\n        /* \"contracts/SimpleContract.sol\":1271:1287  allowance[owner] */\n      0x00\n        /* \"contracts/SimpleContract.sol\":1281:1286  owner */\n      0x03\n      0x00\n      swap1\n      sload\n      swap1\n      0x0100\n      exp\n      swap1\n      div\n      0xffffffffffffffffffffffffffffffffffffffff\n      and\n        /* \"contracts/SimpleContract.sol\":1271:1287  allowance[owner] */\n      0xffffffffffffffffffffffffffffffffffffffff\n      and\n      0xffffffffffffffffffffffffffffffffffffffff\n      and\n      dup2\n      mstore\n      0x20\n      add\n      swap1\n      dup2\n      mstore\n      0x20\n      add\n      0x00\n      keccak256\n        /* \"contracts/SimpleContract.sol\":1271:1297  allowance[owner][_address] */\n      0x00\n        /* \"contracts/SimpleContract.sol\":1288:1296  _address */\n      dup4\n        /* \"contracts/SimpleContract.sol\":1271:1297  allowance[owner][_address] */\n      0xffffffffffffffffffffffffffffffffffffffff\n      and\n      0xffffffffffffffffffffffffffffffffffffffff\n      and\n      dup2\n      mstore\n      0x20\n      add\n      swap1\n      dup2\n      mstore\n      0x20\n      add\n      0x00\n      keccak256\n      0x00\n        /* \"contracts/SimpleContract.sol\":1271:1304  allowance[owner][_address] = true */\n      0x0100\n      exp\n      dup2\n      sload\n      dup2\n      0xff\n      mul\n      not\n      and\n      swap1\n      dup4\n      iszero\n      iszero\n      mul\n      or\n      swap1\n      sstore\n      pop\n        /* \"contracts/SimpleContract.sol\":1200:1312  function assignAllowance (address _address) public onlyOwner{... */\n      pop\n      jump\t// out\n        /* \"contracts/SimpleContract.sol\":920:977  function oneIncrement() public {... */\n    tag_62:\n        /* \"contracts/SimpleContract.sol\":964:969  count */\n      0x01\n      0x00\n        /* \"contracts/SimpleContract.sol\":962:969  ++count */\n      dup2\n      sload\n      tag_95\n      swap1\n      tag_96\n      jump\t// in\n    tag_95:\n      swap2\n      swap1\n      pop\n      dup2\n      swap1\n      sstore\n      pop\n        /* \"contracts/SimpleContract.sol\":920:977  function oneIncrement() public {... */\n      jump\t// out\n        /* \"#utility.yul\":7:84   */\n    tag_97:\n        /* \"#utility.yul\":44:51   */\n      0x00\n        /* \"#utility.yul\":73:78   */\n      dup2\n        /* \"#utility.yul\":62:78   */\n      swap1\n      pop\n        /* \"#utility.yul\":7:84   */\n      swap2\n      swap1\n      pop\n      jump\t// out\n        /* \"#utility.yul\":90:208   */\n    tag_98:\n        /* \"#utility.yul\":177:201   */\n      tag_129\n        /* \"#utility.yul\":195:200   */\n      dup2\n        /* \"#utility.yul\":177:201   */\n      tag_97\n      jump\t// in\n    tag_129:\n        /* \"#utility.yul\":172:175   */\n      dup3\n        /* \"#utility.yul\":165:202   */\n      mstore\n        /* \"#utility.yul\":90:208   */\n      pop\n      pop\n      jump\t// out\n        /* \"#utility.yul\":214:436   */\n    tag_19:\n        /* \"#utility.yul\":307:311   */\n      0x00\n        /* \"#utility.yul\":345:347   */\n      0x20\n        /* \"#utility.yul\":334:343   */\n      dup3\n        /* \"#utility.yul\":330:348   */\n      add\n        /* \"#utility.yul\":322:348   */\n      swap1\n      pop\n        /* \"#utility.yul\":358:429   */\n      tag_131\n        /* \"#utility.yul\":426:427   */\n      0x00\n        /* \"#utility.yul\":415:424   */\n      dup4\n        /* \"#utility.yul\":411:428   */\n      add\n        /* \"#utility.yul\":402:408   */\n      dup5\n        /* \"#utility.yul\":358:429   */\n      tag_98\n      jump\t// in\n    tag_131:\n        /* \"#utility.yul\":214:436   */\n      swap3\n      swap2\n      pop\n      pop\n      jump\t// out\n        /* \"#utility.yul\":442:532   */\n    tag_99:\n        /* \"#utility.yul\":476:483   */\n      0x00\n        /* \"#utility.yul\":519:524   */\n      dup2\n        /* \"#utility.yul\":512:525   */\n      iszero\n        /* \"#utility.yul\":505:526   */\n      iszero\n        /* \"#utility.yul\":494:526   */\n      swap1\n      pop\n        /* \"#utility.yul\":442:532   */\n      swap2\n      swap1\n      pop\n      jump\t// out\n        /* \"#utility.yul\":538:647   */\n    tag_100:\n        /* \"#utility.yul\":619:640   */\n      tag_134\n        /* \"#utility.yul\":634:639   */\n      dup2\n        /* \"#utility.yul\":619:640   */\n      tag_99\n      jump\t// in\n    tag_134:\n        /* \"#utility.yul\":614:617   */\n      dup3\n        /* \"#utility.yul\":607:641   */\n      mstore\n        /* \"#utility.yul\":538:647   */\n      pop\n      pop\n      jump\t// out\n        /* \"#utility.yul\":653:863   */\n    tag_23:\n        /* \"#utility.yul\":740:744   */\n      0x00\n        /* \"#utility.yul\":778:780   */\n      0x20\n        /* \"#utility.yul\":767:776   */\n      dup3\n        /* \"#utility.yul\":763:781   */\n      add\n        /* \"#utility.yul\":755:781   */\n      swap1\n      pop\n        /* \"#utility.yul\":791:856   */\n      tag_136\n        /* \"#utility.yul\":853:854   */\n      0x00\n        /* \"#utility.yul\":842:851   */\n      dup4\n        /* \"#utility.yul\":838:855   */\n      add\n        /* \"#utility.yul\":829:835   */\n      dup5\n        /* \"#utility.yul\":791:856   */\n      tag_100\n      jump\t// in\n    tag_136:\n        /* \"#utility.yul\":653:863   */\n      swap3\n      swap2\n      pop\n      pop\n      jump\t// out\n        /* \"#utility.yul\":950:1067   */\n    tag_102:\n        /* \"#utility.yul\":1059:1060   */\n      0x00\n        /* \"#utility.yul\":1056:1057   */\n      dup1\n        /* \"#utility.yul\":1049:1061   */\n      revert\n        /* \"#utility.yul\":1196:1312   */\n    tag_104:\n        /* \"#utility.yul\":1266:1287   */\n      tag_141\n        /* \"#utility.yul\":1281:1286   */\n      dup2\n        /* \"#utility.yul\":1266:1287   */\n      tag_99\n      jump\t// in\n    tag_141:\n        /* \"#utility.yul\":1259:1264   */\n      dup2\n        /* \"#utility.yul\":1256:1288   */\n      eq\n        /* \"#utility.yul\":1246:1306   */\n      tag_142\n      jumpi\n        /* \"#utility.yul\":1302:1303   */\n      0x00\n        /* \"#utility.yul\":1299:1300   */\n      dup1\n        /* \"#utility.yul\":1292:1304   */\n      revert\n        /* \"#utility.yul\":1246:1306   */\n    tag_142:\n        /* \"#utility.yul\":1196:1312   */\n      pop\n      jump\t// out\n        /* \"#utility.yul\":1318:1451   */\n    tag_105:\n        /* \"#utility.yul\":1361:1366   */\n      0x00\n        /* \"#utility.yul\":1399:1405   */\n      dup2\n        /* \"#utility.yul\":1386:1406   */\n      calldataload\n        /* \"#utility.yul\":1377:1406   */\n      swap1\n      pop\n        /* \"#utility.yul\":1415:1445   */\n      tag_144\n        /* \"#utility.yul\":1439:1444   */\n      dup2\n        /* \"#utility.yul\":1415:1445   */\n      tag_104\n      jump\t// in\n    tag_144:\n        /* \"#utility.yul\":1318:1451   */\n      swap3\n      swap2\n      pop\n      pop\n      jump\t// out\n        /* \"#utility.yul\":1457:1780   */\n    tag_26:\n        /* \"#utility.yul\":1513:1519   */\n      0x00\n        /* \"#utility.yul\":1562:1564   */\n      0x20\n        /* \"#utility.yul\":1550:1559   */\n      dup3\n        /* \"#utility.yul\":1541:1548   */\n      dup5\n        /* \"#utility.yul\":1537:1560   */\n      sub\n        /* \"#utility.yul\":1533:1565   */\n      slt\n        /* \"#utility.yul\":1530:1649   */\n      iszero\n      tag_146\n      jumpi\n        /* \"#utility.yul\":1568:1647   */\n      tag_147\n      tag_102\n      jump\t// in\n    tag_147:\n        /* \"#utility.yul\":1530:1649   */\n    tag_146:\n        /* \"#utility.yul\":1688:1689   */\n      0x00\n        /* \"#utility.yul\":1713:1763   */\n      tag_148\n        /* \"#utility.yul\":1755:1762   */\n      dup5\n        /* \"#utility.yul\":1746:1752   */\n      dup3\n        /* \"#utility.yul\":1735:1744   */\n      dup6\n        /* \"#utility.yul\":1731:1753   */\n      add\n        /* \"#utility.yul\":1713:1763   */\n      tag_105\n      jump\t// in\n    tag_148:\n        /* \"#utility.yul\":1703:1763   */\n      swap2\n      pop\n        /* \"#utility.yul\":1659:1773   */\n      pop\n        /* \"#utility.yul\":1457:1780   */\n      swap3\n      swap2\n      pop\n      pop\n      jump\t// out\n        /* \"#utility.yul\":1786:1862   */\n    tag_106:\n        /* \"#utility.yul\":1822:1829   */\n      0x00\n        /* \"#utility.yul\":1851:1856   */\n      dup2\n        /* \"#utility.yul\":1840:1856   */\n      swap1\n      pop\n        /* \"#utility.yul\":1786:1862   */\n      swap2\n      swap1\n      pop\n      jump\t// out\n        /* \"#utility.yul\":1868:1983   */\n    tag_107:\n        /* \"#utility.yul\":1953:1976   */\n      tag_151\n        /* \"#utility.yul\":1970:1975   */\n      dup2\n        /* \"#utility.yul\":1953:1976   */\n      tag_106\n      jump\t// in\n    tag_151:\n        /* \"#utility.yul\":1948:1951   */\n      dup3\n        /* \"#utility.yul\":1941:1977   */\n      mstore\n        /* \"#utility.yul\":1868:1983   */\n      pop\n      pop\n      jump\t// out\n        /* \"#utility.yul\":1989:2207   */\n    tag_31:\n        /* \"#utility.yul\":2080:2084   */\n      0x00\n        /* \"#utility.yul\":2118:2120   */\n      0x20\n        /* \"#utility.yul\":2107:2116   */\n      dup3\n        /* \"#utility.yul\":2103:2121   */\n      add\n        /* \"#utility.yul\":2095:2121   */\n      swap1\n      pop\n        /* \"#utility.yul\":2131:2200   */\n      tag_153\n        /* \"#utility.yul\":2197:2198   */\n      0x00\n        /* \"#utility.yul\":2186:2195   */\n      dup4\n        /* \"#utility.yul\":2182:2199   */\n      add\n        /* \"#utility.yul\":2173:2179   */\n      dup5\n        /* \"#utility.yul\":2131:2200   */\n      tag_107\n      jump\t// in\n    tag_153:\n        /* \"#utility.yul\":1989:2207   */\n      swap3\n      swap2\n      pop\n      pop\n      jump\t// out\n        /* \"#utility.yul\":2213:2335   */\n    tag_108:\n        /* \"#utility.yul\":2286:2310   */\n      tag_155\n        /* \"#utility.yul\":2304:2309   */\n      dup2\n        /* \"#utility.yul\":2286:2310   */\n      tag_97\n      jump\t// in\n    tag_155:\n        /* \"#utility.yul\":2279:2284   */\n      dup2\n        /* \"#utility.yul\":2276:2311   */\n      eq\n        /* \"#utility.yul\":2266:2329   */\n      tag_156\n      jumpi\n        /* \"#utility.yul\":2325:2326   */\n      0x00\n        /* \"#utility.yul\":2322:2323   */\n      dup1\n        /* \"#utility.yul\":2315:2327   */\n      revert\n        /* \"#utility.yul\":2266:2329   */\n    tag_156:\n        /* \"#utility.yul\":2213:2335   */\n      pop\n      jump\t// out\n        /* \"#utility.yul\":2341:2480   */\n    tag_109:\n        /* \"#utility.yul\":2387:2392   */\n      0x00\n        /* \"#utility.yul\":2425:2431   */\n      dup2\n        /* \"#utility.yul\":2412:2432   */\n      calldataload\n        /* \"#utility.yul\":2403:2432   */\n      swap1\n      pop\n        /* \"#utility.yul\":2441:2474   */\n      tag_158\n        /* \"#utility.yul\":2468:2473   */\n      dup2\n        /* \"#utility.yul\":2441:2474   */\n      tag_108\n      jump\t// in\n    tag_158:\n        /* \"#utility.yul\":2341:2480   */\n      swap3\n      swap2\n      pop\n      pop\n      jump\t// out\n        /* \"#utility.yul\":2486:2815   */\n    tag_37:\n        /* \"#utility.yul\":2545:2551   */\n      0x00\n        /* \"#utility.yul\":2594:2596   */\n      0x20\n        /* \"#utility.yul\":2582:2591   */\n      dup3\n        /* \"#utility.yul\":2573:2580   */\n      dup5\n        /* \"#utility.yul\":2569:2592   */\n      sub\n        /* \"#utility.yul\":2565:2597   */\n      slt\n        /* \"#utility.yul\":2562:2681   */\n      iszero\n      tag_160\n      jumpi\n        /* \"#utility.yul\":2600:2679   */\n      tag_161\n      tag_102\n      jump\t// in\n    tag_161:\n        /* \"#utility.yul\":2562:2681   */\n    tag_160:\n        /* \"#utility.yul\":2720:2721   */\n      0x00\n        /* \"#utility.yul\":2745:2798   */\n      tag_162\n        /* \"#utility.yul\":2790:2797   */\n      dup5\n        /* \"#utility.yul\":2781:2787   */\n      dup3\n        /* \"#utility.yul\":2770:2779   */\n      dup6\n        /* \"#utility.yul\":2766:2788   */\n      add\n        /* \"#utility.yul\":2745:2798   */\n      tag_109\n      jump\t// in\n    tag_162:\n        /* \"#utility.yul\":2735:2798   */\n      swap2\n      pop\n        /* \"#utility.yul\":2691:2808   */\n      pop\n        /* \"#utility.yul\":2486:2815   */\n      swap3\n      swap2\n      pop\n      pop\n      jump\t// out\n        /* \"#utility.yul\":2821:2947   */\n    tag_110:\n        /* \"#utility.yul\":2858:2865   */\n      0x00\n        /* \"#utility.yul\":2898:2940   */\n      0xffffffffffffffffffffffffffffffffffffffff\n        /* \"#utility.yul\":2891:2896   */\n      dup3\n        /* \"#utility.yul\":2887:2941   */\n      and\n        /* \"#utility.yul\":2876:2941   */\n      swap1\n      pop\n        /* \"#utility.yul\":2821:2947   */\n      swap2\n      swap1\n      pop\n      jump\t// out\n        /* \"#utility.yul\":2953:3049   */\n    tag_111:\n        /* \"#utility.yul\":2990:2997   */\n      0x00\n        /* \"#utility.yul\":3019:3043   */\n      tag_165\n        /* \"#utility.yul\":3037:3042   */\n      dup3\n        /* \"#utility.yul\":3019:3043   */\n      tag_110\n      jump\t// in\n    tag_165:\n        /* \"#utility.yul\":3008:3043   */\n      swap1\n      pop\n        /* \"#utility.yul\":2953:3049   */\n      swap2\n      swap1\n      pop\n      jump\t// out\n        /* \"#utility.yul\":3055:3173   */\n    tag_112:\n        /* \"#utility.yul\":3142:3166   */\n      tag_167\n        /* \"#utility.yul\":3160:3165   */\n      dup2\n        /* \"#utility.yul\":3142:3166   */\n      tag_111\n      jump\t// in\n    tag_167:\n        /* \"#utility.yul\":3137:3140   */\n      dup3\n        /* \"#utility.yul\":3130:3167   */\n      mstore\n        /* \"#utility.yul\":3055:3173   */\n      pop\n      pop\n      jump\t// out\n        /* \"#utility.yul\":3179:3401   */\n    tag_42:\n        /* \"#utility.yul\":3272:3276   */\n      0x00\n        /* \"#utility.yul\":3310:3312   */\n      0x20\n        /* \"#utility.yul\":3299:3308   */\n      dup3\n        /* \"#utility.yul\":3295:3313   */\n      add\n        /* \"#utility.yul\":3287:3313   */\n      swap1\n      pop\n        /* \"#utility.yul\":3323:3394   */\n      tag_169\n        /* \"#utility.yul\":3391:3392   */\n      0x00\n        /* \"#utility.yul\":3380:3389   */\n      dup4\n        /* \"#utility.yul\":3376:3393   */\n      add\n        /* \"#utility.yul\":3367:3373   */\n      dup5\n        /* \"#utility.yul\":3323:3394   */\n      tag_112\n      jump\t// in\n    tag_169:\n        /* \"#utility.yul\":3179:3401   */\n      swap3\n      swap2\n      pop\n      pop\n      jump\t// out\n        /* \"#utility.yul\":3407:3527   */\n    tag_113:\n        /* \"#utility.yul\":3479:3502   */\n      tag_171\n        /* \"#utility.yul\":3496:3501   */\n      dup2\n        /* \"#utility.yul\":3479:3502   */\n      tag_106\n      jump\t// in\n    tag_171:\n        /* \"#utility.yul\":3472:3477   */\n      dup2\n        /* \"#utility.yul\":3469:3503   */\n      eq\n        /* \"#utility.yul\":3459:3521   */\n      tag_172\n      jumpi\n        /* \"#utility.yul\":3517:3518   */\n      0x00\n        /* \"#utility.yul\":3514:3515   */\n      dup1\n        /* \"#utility.yul\":3507:3519   */\n      revert\n        /* \"#utility.yul\":3459:3521   */\n    tag_172:\n        /* \"#utility.yul\":3407:3527   */\n      pop\n      jump\t// out\n        /* \"#utility.yul\":3533:3670   */\n    tag_114:\n        /* \"#utility.yul\":3578:3583   */\n      0x00\n        /* \"#utility.yul\":3616:3622   */\n      dup2\n        /* \"#utility.yul\":3603:3623   */\n      calldataload\n        /* \"#utility.yul\":3594:3623   */\n      swap1\n      pop\n        /* \"#utility.yul\":3632:3664   */\n      tag_174\n        /* \"#utility.yul\":3658:3663   */\n      dup2\n        /* \"#utility.yul\":3632:3664   */\n      tag_113\n      jump\t// in\n    tag_174:\n        /* \"#utility.yul\":3533:3670   */\n      swap3\n      swap2\n      pop\n      pop\n      jump\t// out\n        /* \"#utility.yul\":3676:4003   */\n    tag_45:\n        /* \"#utility.yul\":3734:3740   */\n      0x00\n        /* \"#utility.yul\":3783:3785   */\n      0x20\n        /* \"#utility.yul\":3771:3780   */\n      dup3\n        /* \"#utility.yul\":3762:3769   */\n      dup5\n        /* \"#utility.yul\":3758:3781   */\n      sub\n        /* \"#utility.yul\":3754:3786   */\n      slt\n        /* \"#utility.yul\":3751:3870   */\n      iszero\n      tag_176\n      jumpi\n        /* \"#utility.yul\":3789:3868   */\n      tag_177\n      tag_102\n      jump\t// in\n    tag_177:\n        /* \"#utility.yul\":3751:3870   */\n    tag_176:\n        /* \"#utility.yul\":3909:3910   */\n      0x00\n        /* \"#utility.yul\":3934:3986   */\n      tag_178\n        /* \"#utility.yul\":3978:3985   */\n      dup5\n        /* \"#utility.yul\":3969:3975   */\n      dup3\n        /* \"#utility.yul\":3958:3967   */\n      dup6\n        /* \"#utility.yul\":3954:3976   */\n      add\n        /* \"#utility.yul\":3934:3986   */\n      tag_114\n      jump\t// in\n    tag_178:\n        /* \"#utility.yul\":3924:3986   */\n      swap2\n      pop\n        /* \"#utility.yul\":3880:3996   */\n      pop\n        /* \"#utility.yul\":3676:4003   */\n      swap3\n      swap2\n      pop\n      pop\n      jump\t// out\n        /* \"#utility.yul\":4009:4108   */\n    tag_115:\n        /* \"#utility.yul\":4061:4067   */\n      0x00\n        /* \"#utility.yul\":4095:4100   */\n      dup2\n        /* \"#utility.yul\":4089:4101   */\n      mload\n        /* \"#utility.yul\":4079:4101   */\n      swap1\n      pop\n        /* \"#utility.yul\":4009:4108   */\n      swap2\n      swap1\n      pop\n      jump\t// out\n        /* \"#utility.yul\":4114:4283   */\n    tag_116:\n        /* \"#utility.yul\":4198:4209   */\n      0x00\n        /* \"#utility.yul\":4232:4238   */\n      dup3\n        /* \"#utility.yul\":4227:4230   */\n      dup3\n        /* \"#utility.yul\":4220:4239   */\n      mstore\n        /* \"#utility.yul\":4272:4276   */\n      0x20\n        /* \"#utility.yul\":4267:4270   */\n      dup3\n        /* \"#utility.yul\":4263:4277   */\n      add\n        /* \"#utility.yul\":4248:4277   */\n      swap1\n      pop\n        /* \"#utility.yul\":4114:4283   */\n      swap3\n      swap2\n      pop\n      pop\n      jump\t// out\n        /* \"#utility.yul\":4289:4535   */\n    tag_117:\n        /* \"#utility.yul\":4370:4371   */\n      0x00\n        /* \"#utility.yul\":4380:4493   */\n    tag_182:\n        /* \"#utility.yul\":4394:4400   */\n      dup4\n        /* \"#utility.yul\":4391:4392   */\n      dup2\n        /* \"#utility.yul\":4388:4401   */\n      lt\n        /* \"#utility.yul\":4380:4493   */\n      iszero\n      tag_184\n      jumpi\n        /* \"#utility.yul\":4479:4480   */\n      dup1\n        /* \"#utility.yul\":4474:4477   */\n      dup3\n        /* \"#utility.yul\":4470:4481   */\n      add\n        /* \"#utility.yul\":4464:4482   */\n      mload\n        /* \"#utility.yul\":4460:4461   */\n      dup2\n        /* \"#utility.yul\":4455:4458   */\n      dup5\n        /* \"#utility.yul\":4451:4462   */\n      add\n        /* \"#utility.yul\":4444:4483   */\n      mstore\n        /* \"#utility.yul\":4416:4418   */\n      0x20\n        /* \"#utility.yul\":4413:4414   */\n      dup2\n        /* \"#utility.yul\":4409:4419   */\n      add\n        /* \"#utility.yul\":4404:4419   */\n      swap1\n      pop\n        /* \"#utility.yul\":4380:4493   */\n      jump(tag_182)\n    tag_184:\n        /* \"#utility.yul\":4527:4528   */\n      0x00\n        /* \"#utility.yul\":4518:4524   */\n      dup5\n        /* \"#utility.yul\":4513:4516   */\n      dup5\n        /* \"#utility.yul\":4509:4525   */\n      add\n        /* \"#utility.yul\":4502:4529   */\n      mstore\n        /* \"#utility.yul\":4351:4535   */\n      pop\n        /* \"#utility.yul\":4289:4535   */\n      pop\n      pop\n      pop\n      jump\t// out\n        /* \"#utility.yul\":4541:4643   */\n    tag_118:\n        /* \"#utility.yul\":4582:4588   */\n      0x00\n        /* \"#utility.yul\":4633:4635   */\n      0x1f\n        /* \"#utility.yul\":4629:4636   */\n      not\n        /* \"#utility.yul\":4624:4626   */\n      0x1f\n        /* \"#utility.yul\":4617:4622   */\n      dup4\n        /* \"#utility.yul\":4613:4627   */\n      add\n        /* \"#utility.yul\":4609:4637   */\n      and\n        /* \"#utility.yul\":4599:4637   */\n      swap1\n      pop\n        /* \"#utility.yul\":4541:4643   */\n      swap2\n      swap1\n      pop\n      jump\t// out\n        /* \"#utility.yul\":4649:5026   */\n    tag_119:\n        /* \"#utility.yul\":4737:4740   */\n      0x00\n        /* \"#utility.yul\":4765:4804   */\n      tag_187\n        /* \"#utility.yul\":4798:4803   */\n      dup3\n        /* \"#utility.yul\":4765:4804   */\n      tag_115\n      jump\t// in\n    tag_187:\n        /* \"#utility.yul\":4820:4891   */\n      tag_188\n        /* \"#utility.yul\":4884:4890   */\n      dup2\n        /* \"#utility.yul\":4879:4882   */\n      dup6\n        /* \"#utility.yul\":4820:4891   */\n      tag_116\n      jump\t// in\n    tag_188:\n        /* \"#utility.yul\":4813:4891   */\n      swap4\n      pop\n        /* \"#utility.yul\":4900:4965   */\n      tag_189\n        /* \"#utility.yul\":4958:4964   */\n      dup2\n        /* \"#utility.yul\":4953:4956   */\n      dup6\n        /* \"#utility.yul\":4946:4950   */\n      0x20\n        /* \"#utility.yul\":4939:4944   */\n      dup7\n        /* \"#utility.yul\":4935:4951   */\n      add\n        /* \"#utility.yul\":4900:4965   */\n      tag_117\n      jump\t// in\n    tag_189:\n        /* \"#utility.yul\":4990:5019   */\n      tag_190\n        /* \"#utility.yul\":5012:5018   */\n      dup2\n        /* \"#utility.yul\":4990:5019   */\n      tag_118\n      jump\t// in\n    tag_190:\n        /* \"#utility.yul\":4985:4988   */\n      dup5\n        /* \"#utility.yul\":4981:5020   */\n      add\n        /* \"#utility.yul\":4974:5020   */\n      swap2\n      pop\n        /* \"#utility.yul\":4741:5026   */\n      pop\n        /* \"#utility.yul\":4649:5026   */\n      swap3\n      swap2\n      pop\n      pop\n      jump\t// out\n        /* \"#utility.yul\":5032:5345   */\n    tag_51:\n        /* \"#utility.yul\":5145:5149   */\n      0x00\n        /* \"#utility.yul\":5183:5185   */\n      0x20\n        /* \"#utility.yul\":5172:5181   */\n      dup3\n        /* \"#utility.yul\":5168:5186   */\n      add\n        /* \"#utility.yul\":5160:5186   */\n      swap1\n      pop\n        /* \"#utility.yul\":5232:5241   */\n      dup2\n        /* \"#utility.yul\":5226:5230   */\n      dup2\n        /* \"#utility.yul\":5222:5242   */\n      sub\n        /* \"#utility.yul\":5218:5219   */\n      0x00\n        /* \"#utility.yul\":5207:5216   */\n      dup4\n        /* \"#utility.yul\":5203:5220   */\n      add\n        /* \"#utility.yul\":5196:5243   */\n      mstore\n        /* \"#utility.yul\":5260:5338   */\n      tag_192\n        /* \"#utility.yul\":5333:5337   */\n      dup2\n        /* \"#utility.yul\":5324:5330   */\n      dup5\n        /* \"#utility.yul\":5260:5338   */\n      tag_119\n      jump\t// in\n    tag_192:\n        /* \"#utility.yul\":5252:5338   */\n      swap1\n      pop\n        /* \"#utility.yul\":5032:5345   */\n      swap3\n      swap2\n      pop\n      pop\n      jump\t// out\n        /* \"#utility.yul\":5351:5473   */\n    tag_120:\n        /* \"#utility.yul\":5424:5448   */\n      tag_194\n        /* \"#utility.yul\":5442:5447   */\n      dup2\n        /* \"#utility.yul\":5424:5448   */\n      tag_111\n      jump\t// in\n    tag_194:\n        /* \"#utility.yul\":5417:5422   */\n      dup2\n        /* \"#utility.yul\":5414:5449   */\n      eq\n        /* \"#utility.yul\":5404:5467   */\n      tag_195\n      jumpi\n        /* \"#utility.yul\":5463:5464   */\n      0x00\n        /* \"#utility.yul\":5460:5461   */\n      dup1\n        /* \"#utility.yul\":5453:5465   */\n      revert\n        /* \"#utility.yul\":5404:5467   */\n    tag_195:\n        /* \"#utility.yul\":5351:5473   */\n      pop\n      jump\t// out\n        /* \"#utility.yul\":5479:5618   */\n    tag_121:\n        /* \"#utility.yul\":5525:5530   */\n      0x00\n        /* \"#utility.yul\":5563:5569   */\n      dup2\n        /* \"#utility.yul\":5550:5570   */\n      calldataload\n        /* \"#utility.yul\":5541:5570   */\n      swap1\n      pop\n        /* \"#utility.yul\":5579:5612   */\n      tag_197\n        /* \"#utility.yul\":5606:5611   */\n      dup2\n        /* \"#utility.yul\":5579:5612   */\n      tag_120\n      jump\t// in\n    tag_197:\n        /* \"#utility.yul\":5479:5618   */\n      swap3\n      swap2\n      pop\n      pop\n      jump\t// out\n        /* \"#utility.yul\":5624:6098   */\n    tag_54:\n        /* \"#utility.yul\":5692:5698   */\n      0x00\n        /* \"#utility.yul\":5700:5706   */\n      dup1\n        /* \"#utility.yul\":5749:5751   */\n      0x40\n        /* \"#utility.yul\":5737:5746   */\n      dup4\n        /* \"#utility.yul\":5728:5735   */\n      dup6\n        /* \"#utility.yul\":5724:5747   */\n      sub\n        /* \"#utility.yul\":5720:5752   */\n      slt\n        /* \"#utility.yul\":5717:5836   */\n      iszero\n      tag_199\n      jumpi\n        /* \"#utility.yul\":5755:5834   */\n      tag_200\n      tag_102\n      jump\t// in\n    tag_200:\n        /* \"#utility.yul\":5717:5836   */\n    tag_199:\n        /* \"#utility.yul\":5875:5876   */\n      0x00\n        /* \"#utility.yul\":5900:5953   */\n      tag_201\n        /* \"#utility.yul\":5945:5952   */\n      dup6\n        /* \"#utility.yul\":5936:5942   */\n      dup3\n        /* \"#utility.yul\":5925:5934   */\n      dup7\n        /* \"#utility.yul\":5921:5943   */\n      add\n        /* \"#utility.yul\":5900:5953   */\n      tag_121\n      jump\t// in\n    tag_201:\n        /* \"#utility.yul\":5890:5953   */\n      swap3\n      pop\n        /* \"#utility.yul\":5846:5963   */\n      pop\n        /* \"#utility.yul\":6002:6004   */\n      0x20\n        /* \"#utility.yul\":6028:6081   */\n      tag_202\n        /* \"#utility.yul\":6073:6080   */\n      dup6\n        /* \"#utility.yul\":6064:6070   */\n      dup3\n        /* \"#utility.yul\":6053:6062   */\n      dup7\n        /* \"#utility.yul\":6049:6071   */\n      add\n        /* \"#utility.yul\":6028:6081   */\n      tag_121\n      jump\t// in\n    tag_202:\n        /* \"#utility.yul\":6018:6081   */\n      swap2\n      pop\n        /* \"#utility.yul\":5973:6091   */\n      pop\n        /* \"#utility.yul\":5624:6098   */\n      swap3\n      pop\n      swap3\n      swap1\n      pop\n      jump\t// out\n        /* \"#utility.yul\":6104:6433   */\n    tag_59:\n        /* \"#utility.yul\":6163:6169   */\n      0x00\n        /* \"#utility.yul\":6212:6214   */\n      0x20\n        /* \"#utility.yul\":6200:6209   */\n      dup3\n        /* \"#utility.yul\":6191:6198   */\n      dup5\n        /* \"#utility.yul\":6187:6210   */\n      sub\n        /* \"#utility.yul\":6183:6215   */\n      slt\n        /* \"#utility.yul\":6180:6299   */\n      iszero\n      tag_204\n      jumpi\n        /* \"#utility.yul\":6218:6297   */\n      tag_205\n      tag_102\n      jump\t// in\n    tag_205:\n        /* \"#utility.yul\":6180:6299   */\n    tag_204:\n        /* \"#utility.yul\":6338:6339   */\n      0x00\n        /* \"#utility.yul\":6363:6416   */\n      tag_206\n        /* \"#utility.yul\":6408:6415   */\n      dup5\n        /* \"#utility.yul\":6399:6405   */\n      dup3\n        /* \"#utility.yul\":6388:6397   */\n      dup6\n        /* \"#utility.yul\":6384:6406   */\n      add\n        /* \"#utility.yul\":6363:6416   */\n      tag_121\n      jump\t// in\n    tag_206:\n        /* \"#utility.yul\":6353:6416   */\n      swap2\n      pop\n        /* \"#utility.yul\":6309:6426   */\n      pop\n        /* \"#utility.yul\":6104:6433   */\n      swap3\n      swap2\n      pop\n      pop\n      jump\t// out\n        /* \"#utility.yul\":6439:6619   */\n    tag_68:\n        /* \"#utility.yul\":6487:6564   */\n      0x4e487b7100000000000000000000000000000000000000000000000000000000\n        /* \"#utility.yul\":6484:6485   */\n      0x00\n        /* \"#utility.yul\":6477:6565   */\n      mstore\n        /* \"#utility.yul\":6584:6588   */\n      0x32\n        /* \"#utility.yul\":6581:6582   */\n      0x04\n        /* \"#utility.yul\":6574:6589   */\n      mstore\n        /* \"#utility.yul\":6608:6612   */\n      0x24\n        /* \"#utility.yul\":6605:6606   */\n      0x00\n        /* \"#utility.yul\":6598:6613   */\n      revert\n        /* \"#utility.yul\":6625:6805   */\n    tag_122:\n        /* \"#utility.yul\":6673:6750   */\n      0x4e487b7100000000000000000000000000000000000000000000000000000000\n        /* \"#utility.yul\":6670:6671   */\n      0x00\n        /* \"#utility.yul\":6663:6751   */\n      mstore\n        /* \"#utility.yul\":6770:6774   */\n      0x22\n        /* \"#utility.yul\":6767:6768   */\n      0x04\n        /* \"#utility.yul\":6760:6775   */\n      mstore\n        /* \"#utility.yul\":6794:6798   */\n      0x24\n        /* \"#utility.yul\":6791:6792   */\n      0x00\n        /* \"#utility.yul\":6784:6799   */\n      revert\n        /* \"#utility.yul\":6811:7131   */\n    tag_82:\n        /* \"#utility.yul\":6855:6861   */\n      0x00\n        /* \"#utility.yul\":6892:6893   */\n      0x02\n        /* \"#utility.yul\":6886:6890   */\n      dup3\n        /* \"#utility.yul\":6882:6894   */\n      div\n        /* \"#utility.yul\":6872:6894   */\n      swap1\n      pop\n        /* \"#utility.yul\":6939:6940   */\n      0x01\n        /* \"#utility.yul\":6933:6937   */\n      dup3\n        /* \"#utility.yul\":6929:6941   */\n      and\n        /* \"#utility.yul\":6960:6978   */\n      dup1\n        /* \"#utility.yul\":6950:7031   */\n      tag_210\n      jumpi\n        /* \"#utility.yul\":7016:7020   */\n      0x7f\n        /* \"#utility.yul\":7008:7014   */\n      dup3\n        /* \"#utility.yul\":7004:7021   */\n      and\n        /* \"#utility.yul\":6994:7021   */\n      swap2\n      pop\n        /* \"#utility.yul\":6950:7031   */\n    tag_210:\n        /* \"#utility.yul\":7078:7080   */\n      0x20\n        /* \"#utility.yul\":7070:7076   */\n      dup3\n        /* \"#utility.yul\":7067:7081   */\n      lt\n        /* \"#utility.yul\":7047:7065   */\n      dup2\n        /* \"#utility.yul\":7044:7082   */\n      sub\n        /* \"#utility.yul\":7041:7125   */\n      tag_211\n      jumpi\n        /* \"#utility.yul\":7097:7115   */\n      tag_212\n      tag_122\n      jump\t// in\n    tag_212:\n        /* \"#utility.yul\":7041:7125   */\n    tag_211:\n        /* \"#utility.yul\":6862:7131   */\n      pop\n        /* \"#utility.yul\":6811:7131   */\n      swap2\n      swap1\n      pop\n      jump\t// out\n        /* \"#utility.yul\":7137:7278   */\n    tag_123:\n        /* \"#utility.yul\":7186:7190   */\n      0x00\n        /* \"#utility.yul\":7209:7212   */\n      dup2\n        /* \"#utility.yul\":7201:7212   */\n      swap1\n      pop\n        /* \"#utility.yul\":7232:7235   */\n      dup2\n        /* \"#utility.yul\":7229:7230   */\n      0x00\n        /* \"#utility.yul\":7222:7236   */\n      mstore\n        /* \"#utility.yul\":7266:7270   */\n      0x20\n        /* \"#utility.yul\":7263:7264   */\n      0x00\n        /* \"#utility.yul\":7253:7271   */\n      keccak256\n        /* \"#utility.yul\":7245:7271   */\n      swap1\n      pop\n        /* \"#utility.yul\":7137:7278   */\n      swap2\n      swap1\n      pop\n      jump\t// out\n        /* \"#utility.yul\":7308:8139   */\n    tag_124:\n        /* \"#utility.yul\":7393:7396   */\n      0x00\n        /* \"#utility.yul\":7430:7435   */\n      dup2\n        /* \"#utility.yul\":7424:7436   */\n      sload\n        /* \"#utility.yul\":7459:7495   */\n      tag_215\n        /* \"#utility.yul\":7485:7494   */\n      dup2\n        /* \"#utility.yul\":7459:7495   */\n      tag_82\n      jump\t// in\n    tag_215:\n        /* \"#utility.yul\":7511:7582   */\n      tag_216\n        /* \"#utility.yul\":7575:7581   */\n      dup2\n        /* \"#utility.yul\":7570:7573   */\n      dup7\n        /* \"#utility.yul\":7511:7582   */\n      tag_116\n      jump\t// in\n    tag_216:\n        /* \"#utility.yul\":7504:7582   */\n      swap5\n      pop\n        /* \"#utility.yul\":7613:7614   */\n      0x01\n        /* \"#utility.yul\":7602:7611   */\n      dup3\n        /* \"#utility.yul\":7598:7615   */\n      and\n        /* \"#utility.yul\":7629:7630   */\n      0x00\n        /* \"#utility.yul\":7624:7788   */\n      dup2\n      eq\n      tag_218\n      jumpi\n        /* \"#utility.yul\":7802:7803   */\n      0x01\n        /* \"#utility.yul\":7797:8133   */\n      dup2\n      eq\n      tag_219\n      jumpi\n        /* \"#utility.yul\":7591:8133   */\n      jump(tag_217)\n        /* \"#utility.yul\":7624:7788   */\n    tag_218:\n        /* \"#utility.yul\":7708:7712   */\n      0xff\n        /* \"#utility.yul\":7704:7713   */\n      not\n        /* \"#utility.yul\":7693:7702   */\n      dup4\n        /* \"#utility.yul\":7689:7714   */\n      and\n        /* \"#utility.yul\":7684:7687   */\n      dup7\n        /* \"#utility.yul\":7677:7715   */\n      mstore\n        /* \"#utility.yul\":7768:7774   */\n      dup2\n        /* \"#utility.yul\":7761:7775   */\n      iszero\n        /* \"#utility.yul\":7754:7776   */\n      iszero\n        /* \"#utility.yul\":7748:7752   */\n      0x20\n        /* \"#utility.yul\":7744:7777   */\n      mul\n        /* \"#utility.yul\":7739:7742   */\n      dup7\n        /* \"#utility.yul\":7735:7778   */\n      add\n        /* \"#utility.yul\":7728:7778   */\n      swap4\n      pop\n        /* \"#utility.yul\":7624:7788   */\n      jump(tag_217)\n        /* \"#utility.yul\":7797:8133   */\n    tag_219:\n        /* \"#utility.yul\":7864:7902   */\n      tag_220\n        /* \"#utility.yul\":7896:7901   */\n      dup6\n        /* \"#utility.yul\":7864:7902   */\n      tag_123\n      jump\t// in\n    tag_220:\n        /* \"#utility.yul\":7924:7925   */\n      0x00\n        /* \"#utility.yul\":7938:8092   */\n    tag_221:\n        /* \"#utility.yul\":7952:7958   */\n      dup4\n        /* \"#utility.yul\":7949:7950   */\n      dup2\n        /* \"#utility.yul\":7946:7959   */\n      lt\n        /* \"#utility.yul\":7938:8092   */\n      iszero\n      tag_223\n      jumpi\n        /* \"#utility.yul\":8026:8033   */\n      dup2\n        /* \"#utility.yul\":8020:8034   */\n      sload\n        /* \"#utility.yul\":8016:8017   */\n      dup2\n        /* \"#utility.yul\":8011:8014   */\n      dup10\n        /* \"#utility.yul\":8007:8018   */\n      add\n        /* \"#utility.yul\":8000:8035   */\n      mstore\n        /* \"#utility.yul\":8076:8077   */\n      0x01\n        /* \"#utility.yul\":8067:8074   */\n      dup3\n        /* \"#utility.yul\":8063:8078   */\n      add\n        /* \"#utility.yul\":8052:8078   */\n      swap2\n      pop\n        /* \"#utility.yul\":7974:7978   */\n      0x20\n        /* \"#utility.yul\":7971:7972   */\n      dup2\n        /* \"#utility.yul\":7967:7979   */\n      add\n        /* \"#utility.yul\":7962:7979   */\n      swap1\n      pop\n        /* \"#utility.yul\":7938:8092   */\n      jump(tag_221)\n    tag_223:\n        /* \"#utility.yul\":8121:8122   */\n      dup1\n        /* \"#utility.yul\":8116:8119   */\n      dup9\n        /* \"#utility.yul\":8112:8123   */\n      add\n        /* \"#utility.yul\":8105:8123   */\n      swap6\n      pop\n        /* \"#utility.yul\":7804:8133   */\n      pop\n      pop\n        /* \"#utility.yul\":7591:8133   */\n    tag_217:\n      pop\n        /* \"#utility.yul\":7397:8139   */\n      pop\n      pop\n        /* \"#utility.yul\":7308:8139   */\n      swap3\n      swap2\n      pop\n      pop\n      jump\t// out\n        /* \"#utility.yul\":8145:8452   */\n    tag_72:\n        /* \"#utility.yul\":8255:8259   */\n      0x00\n        /* \"#utility.yul\":8293:8295   */\n      0x20\n        /* \"#utility.yul\":8282:8291   */\n      dup3\n        /* \"#utility.yul\":8278:8296   */\n      add\n        /* \"#utility.yul\":8270:8296   */\n      swap1\n      pop\n        /* \"#utility.yul\":8342:8351   */\n      dup2\n        /* \"#utility.yul\":8336:8340   */\n      dup2\n        /* \"#utility.yul\":8332:8352   */\n      sub\n        /* \"#utility.yul\":8328:8329   */\n      0x00\n        /* \"#utility.yul\":8317:8326   */\n      dup4\n        /* \"#utility.yul\":8313:8330   */\n      add\n        /* \"#utility.yul\":8306:8353   */\n      mstore\n        /* \"#utility.yul\":8370:8445   */\n      tag_225\n        /* \"#utility.yul\":8440:8444   */\n      dup2\n        /* \"#utility.yul\":8431:8437   */\n      dup5\n        /* \"#utility.yul\":8370:8445   */\n      tag_124\n      jump\t// in\n    tag_225:\n        /* \"#utility.yul\":8362:8445   */\n      swap1\n      pop\n        /* \"#utility.yul\":8145:8452   */\n      swap3\n      swap2\n      pop\n      pop\n      jump\t// out\n        /* \"#utility.yul\":8458:8638   */\n    tag_125:\n        /* \"#utility.yul\":8506:8583   */\n      0x4e487b7100000000000000000000000000000000000000000000000000000000\n        /* \"#utility.yul\":8503:8504   */\n      0x00\n        /* \"#utility.yul\":8496:8584   */\n      mstore\n        /* \"#utility.yul\":8603:8607   */\n      0x11\n        /* \"#utility.yul\":8600:8601   */\n      0x04\n        /* \"#utility.yul\":8593:8608   */\n      mstore\n        /* \"#utility.yul\":8627:8631   */\n      0x24\n        /* \"#utility.yul\":8624:8625   */\n      0x00\n        /* \"#utility.yul\":8617:8632   */\n      revert\n        /* \"#utility.yul\":8644:8835   */\n    tag_75:\n        /* \"#utility.yul\":8684:8687   */\n      0x00\n        /* \"#utility.yul\":8703:8723   */\n      tag_228\n        /* \"#utility.yul\":8721:8722   */\n      dup3\n        /* \"#utility.yul\":8703:8723   */\n      tag_97\n      jump\t// in\n    tag_228:\n        /* \"#utility.yul\":8698:8723   */\n      swap2\n      pop\n        /* \"#utility.yul\":8737:8757   */\n      tag_229\n        /* \"#utility.yul\":8755:8756   */\n      dup4\n        /* \"#utility.yul\":8737:8757   */\n      tag_97\n      jump\t// in\n    tag_229:\n        /* \"#utility.yul\":8732:8757   */\n      swap3\n      pop\n        /* \"#utility.yul\":8780:8781   */\n      dup3\n        /* \"#utility.yul\":8777:8778   */\n      dup3\n        /* \"#utility.yul\":8773:8782   */\n      add\n        /* \"#utility.yul\":8766:8782   */\n      swap1\n      pop\n        /* \"#utility.yul\":8801:8804   */\n      dup1\n        /* \"#utility.yul\":8798:8799   */\n      dup3\n        /* \"#utility.yul\":8795:8805   */\n      gt\n        /* \"#utility.yul\":8792:8828   */\n      iszero\n      tag_230\n      jumpi\n        /* \"#utility.yul\":8808:8826   */\n      tag_231\n      tag_125\n      jump\t// in\n    tag_231:\n        /* \"#utility.yul\":8792:8828   */\n    tag_230:\n        /* \"#utility.yul\":8644:8835   */\n      swap3\n      swap2\n      pop\n      pop\n      jump\t// out\n        /* \"#utility.yul\":8841:9216   */\n    tag_78:\n        /* \"#utility.yul\":8880:8883   */\n      0x00\n        /* \"#utility.yul\":8899:8918   */\n      tag_233\n        /* \"#utility.yul\":8916:8917   */\n      dup3\n        /* \"#utility.yul\":8899:8918   */\n      tag_106\n      jump\t// in\n    tag_233:\n        /* \"#utility.yul\":8894:8918   */\n      swap2\n      pop\n        /* \"#utility.yul\":8932:8951   */\n      tag_234\n        /* \"#utility.yul\":8949:8950   */\n      dup4\n        /* \"#utility.yul\":8932:8951   */\n      tag_106\n      jump\t// in\n    tag_234:\n        /* \"#utility.yul\":8927:8951   */\n      swap3\n      pop\n        /* \"#utility.yul\":8974:8975   */\n      dup3\n        /* \"#utility.yul\":8971:8972   */\n      dup3\n        /* \"#utility.yul\":8967:8976   */\n      add\n        /* \"#utility.yul\":8960:8976   */\n      swap1\n      pop\n        /* \"#utility.yul\":9172:9173   */\n      dup3\n        /* \"#utility.yul\":9167:9170   */\n      dup2\n        /* \"#utility.yul\":9163:9174   */\n      slt\n        /* \"#utility.yul\":9156:9175   */\n      iszero\n        /* \"#utility.yul\":9152:9153   */\n      0x00\n        /* \"#utility.yul\":9149:9150   */\n      dup4\n        /* \"#utility.yul\":9145:9154   */\n      slt\n        /* \"#utility.yul\":9141:9176   */\n      and\n        /* \"#utility.yul\":9124:9125   */\n      dup4\n        /* \"#utility.yul\":9119:9122   */\n      dup3\n        /* \"#utility.yul\":9115:9126   */\n      slt\n        /* \"#utility.yul\":9110:9111   */\n      0x00\n        /* \"#utility.yul\":9107:9108   */\n      dup5\n        /* \"#utility.yul\":9103:9112   */\n      slt\n        /* \"#utility.yul\":9096:9113   */\n      iszero\n        /* \"#utility.yul\":9092:9127   */\n      and\n        /* \"#utility.yul\":9076:9186   */\n      or\n        /* \"#utility.yul\":9073:9209   */\n      iszero\n      tag_235\n      jumpi\n        /* \"#utility.yul\":9189:9207   */\n      tag_236\n      tag_125\n      jump\t// in\n    tag_236:\n        /* \"#utility.yul\":9073:9209   */\n    tag_235:\n        /* \"#utility.yul\":8841:9216   */\n      swap3\n      swap2\n      pop\n      pop\n      jump\t// out\n        /* \"#utility.yul\":9222:9455   */\n    tag_96:\n        /* \"#utility.yul\":9261:9264   */\n      0x00\n        /* \"#utility.yul\":9284:9308   */\n      tag_238\n        /* \"#utility.yul\":9302:9307   */\n      dup3\n        /* \"#utility.yul\":9284:9308   */\n      tag_97\n      jump\t// in\n    tag_238:\n        /* \"#utility.yul\":9275:9308   */\n      swap2\n      pop\n        /* \"#utility.yul\":9330:9396   */\n      0xffffffffffffffffffffffffffffffffffffffffffffffffffffffffffffffff\n        /* \"#utility.yul\":9323:9328   */\n      dup3\n        /* \"#utility.yul\":9320:9397   */\n      sub\n        /* \"#utility.yul\":9317:9420   */\n      tag_239\n      jumpi\n        /* \"#utility.yul\":9400:9418   */\n      tag_240\n      tag_125\n      jump\t// in\n    tag_240:\n        /* \"#utility.yul\":9317:9420   */\n    tag_239:\n        /* \"#utility.yul\":9447:9448   */\n      0x01\n        /* \"#utility.yul\":9440:9445   */\n      dup3\n        /* \"#utility.yul\":9436:9449   */\n      add\n        /* \"#utility.yul\":9429:9449   */\n      swap1\n      pop\n        /* \"#utility.yul\":9222:9455   */\n      swap2\n      swap1\n      pop\n      jump\t// out\n\n    auxdata: 0xa264697066735822122005679d63d0801c60908e6e8bb5bca74470ff3690e5d7ab0adef94f45149e639064736f6c63430008110033\n}\n",
				"bytecode": {
					"linkReferences": {},
					"object": "60806040523480156200001157600080fd5b50604051620011ba380380620011ba833981810160405281019062000037919062000224565b80600360006101000a81548173ffffffffffffffffffffffffffffffffffffffff021916908373ffffffffffffffffffffffffffffffffffffffff160217905550600580600181540180825580915050600190039060005260206000200160006040518060400160405280600e81526020017f6973206e6f7420616c6c6f77656400000000000000000000000000000000000081525090919091509081620000e09190620004d0565b50600580600181540180825580915050600190039060005260206000200160006040518060400160405280600a81526020017f6f6e6c79206f776e65720000000000000000000000000000000000000000000081525090919091509081620001499190620004d0565b50600580600181540180825580915050600190039060005260206000200160006040518060400160405280600b81526020017f706c616365686f6c64657200000000000000000000000000000000000000000081525090919091509081620001b29190620004d0565b5050620005b7565b600080fd5b600073ffffffffffffffffffffffffffffffffffffffff82169050919050565b6000620001ec82620001bf565b9050919050565b620001fe81620001df565b81146200020a57600080fd5b50565b6000815190506200021e81620001f3565b92915050565b6000602082840312156200023d576200023c620001ba565b5b60006200024d848285016200020d565b91505092915050565b600081519050919050565b7f4e487b7100000000000000000000000000000000000000000000000000000000600052604160045260246000fd5b7f4e487b7100000000000000000000000000000000000000000000000000000000600052602260045260246000fd5b60006002820490506001821680620002d857607f821691505b602082108103620002ee57620002ed62000290565b5b50919050565b60008190508160005260206000209050919050565b60006020601f8301049050919050565b600082821b905092915050565b600060088302620003587fffffffffffffffffffffffffffffffffffffffffffffffffffffffffffffffff8262000319565b62000364868362000319565b95508019841693508086168417925050509392505050565b6000819050919050565b6000819050919050565b6000620003b1620003ab620003a5846200037c565b62000386565b6200037c565b9050919050565b6000819050919050565b620003cd8362000390565b620003e5620003dc82620003b8565b84845462000326565b825550505050565b600090565b620003fc620003ed565b62000409818484620003c2565b505050565b5b81811015620004315762000425600082620003f2565b6001810190506200040f565b5050565b601f82111562000480576200044a81620002f4565b620004558462000309565b8101602085101562000465578190505b6200047d620004748562000309565b8301826200040e565b50505b505050565b600082821c905092915050565b6000620004a56000198460080262000485565b1980831691505092915050565b6000620004c0838362000492565b9150826002028217905092915050565b620004db8262000256565b67ffffffffffffffff811115620004f757620004f662000261565b5b620005038254620002bf565b6200051082828562000435565b600060209050601f83116001811462000548576000841562000533578287015190505b6200053f8582620004b2565b865550620005af565b601f1984166200055886620002f4565b60005b8281101562000582578489015182556001820191506020850194506020810190506200055b565b86831015620005a257848901516200059e601f89168262000492565b8355505b6001600288020188555050505b505050505050565b610bf380620005c76000396000f3fe608060405234801561001057600080fd5b50600436106100b45760003560e01c80638da5cb5b116100715780638da5cb5b14610169578063be7cb50614610187578063c539ab78146101a3578063dd62ed3e146101d3578063f6ace8d714610203578063ffac3b1d1461021f576100b4565b806306661abd146100b957806319e1fca4146100d75780632babac22146100f55780635f3d8f4a14610111578063702051f01461012f5780637cf5dab01461014d575b600080fd5b6100c1610229565b6040516100ce9190610648565b60405180910390f35b6100df61022f565b6040516100ec919061067e565b60405180910390f35b61010f600480360381019061010a91906106ca565b610240565b005b61011961025c565b6040516101269190610710565b60405180910390f35b610137610262565b6040516101449190610648565b60405180910390f35b61016760048036038101906101629190610757565b61026f565b005b610171610393565b60405161017e91906107c5565b60405180910390f35b6101a1600480360381019061019c919061080c565b6103b9565b005b6101bd60048036038101906101b89190610757565b6103d0565b6040516101ca91906108c9565b60405180910390f35b6101ed60048036038101906101e89190610917565b61047c565b6040516101fa919061067e565b60405180910390f35b61021d60048036038101906102189190610957565b6104ab565b005b610227610617565b005b60015481565b60008054906101000a900460ff1681565b806000806101000a81548160ff02191690831515021790555050565b60025481565b6000600580549050905090565b60046000600360009054906101000a900473ffffffffffffffffffffffffffffffffffffffff1673ffffffffffffffffffffffffffffffffffffffff1673ffffffffffffffffffffffffffffffffffffffff16815260200190815260200160002060003373ffffffffffffffffffffffffffffffffffffffff1673ffffffffffffffffffffffffffffffffffffffff16815260200190815260200160002060009054906101000a900460ff1660056000815481106103305761032f610984565b5b906000526020600020019061037b576040517f08c379a00000000000000000000000000000000000000000000000000000000081526004016103729190610aac565b60405180910390fd5b508060015461038a9190610afd565b60018190555050565b600360009054906101000a900473ffffffffffffffffffffffffffffffffffffffff1681565b806002546103c79190610b31565b60028190555050565b600581815481106103e057600080fd5b9060005260206000200160009150905080546103fb906109e2565b80601f0160208091040260200160405190810160405280929190818152602001828054610427906109e2565b80156104745780601f1061044957610100808354040283529160200191610474565b820191906000526020600020905b81548152906001019060200180831161045757829003601f168201915b505050505081565b60046020528160005260406000206020528060005260406000206000915091509054906101000a900460ff1681565b3373ffffffffffffffffffffffffffffffffffffffff16600360009054906101000a900473ffffffffffffffffffffffffffffffffffffffff1673ffffffffffffffffffffffffffffffffffffffff1614600560018154811061051157610510610984565b5b906000526020600020019061055c576040517f08c379a00000000000000000000000000000000000000000000000000000000081526004016105539190610aac565b60405180910390fd5b50600160046000600360009054906101000a900473ffffffffffffffffffffffffffffffffffffffff1673ffffffffffffffffffffffffffffffffffffffff1673ffffffffffffffffffffffffffffffffffffffff16815260200190815260200160002060008373ffffffffffffffffffffffffffffffffffffffff1673ffffffffffffffffffffffffffffffffffffffff16815260200190815260200160002060006101000a81548160ff02191690831515021790555050565b60016000815461062690610b75565b91905081905550565b6000819050919050565b6106428161062f565b82525050565b600060208201905061065d6000830184610639565b92915050565b60008115159050919050565b61067881610663565b82525050565b6000602082019050610693600083018461066f565b92915050565b600080fd5b6106a781610663565b81146106b257600080fd5b50565b6000813590506106c48161069e565b92915050565b6000602082840312156106e0576106df610699565b5b60006106ee848285016106b5565b91505092915050565b6000819050919050565b61070a816106f7565b82525050565b60006020820190506107256000830184610701565b92915050565b6107348161062f565b811461073f57600080fd5b50565b6000813590506107518161072b565b92915050565b60006020828403121561076d5761076c610699565b5b600061077b84828501610742565b91505092915050565b600073ffffffffffffffffffffffffffffffffffffffff82169050919050565b60006107af82610784565b9050919050565b6107bf816107a4565b82525050565b60006020820190506107da60008301846107b6565b92915050565b6107e9816106f7565b81146107f457600080fd5b50565b600081359050610806816107e0565b92915050565b60006020828403121561082257610821610699565b5b6000610830848285016107f7565b91505092915050565b600081519050919050565b600082825260208201905092915050565b60005b83811015610873578082015181840152602081019050610858565b60008484015250505050565b6000601f19601f8301169050919050565b600061089b82610839565b6108a58185610844565b93506108b5818560208601610855565b6108be8161087f565b840191505092915050565b600060208201905081810360008301526108e38184610890565b905092915050565b6108f4816107a4565b81146108ff57600080fd5b50565b600081359050610911816108eb565b92915050565b6000806040838503121561092e5761092d610699565b5b600061093c85828601610902565b925050602061094d85828601610902565b9150509250929050565b60006020828403121561096d5761096c610699565b5b600061097b84828501610902565b91505092915050565b7f4e487b7100000000000000000000000000000000000000000000000000000000600052603260045260246000fd5b7f4e487b7100000000000000000000000000000000000000000000000000000000600052602260045260246000fd5b600060028204905060018216806109fa57607f821691505b602082108103610a0d57610a0c6109b3565b5b50919050565b60008190508160005260206000209050919050565b60008154610a35816109e2565b610a3f8186610844565b94506001821660008114610a5a5760018114610a7057610aa3565b60ff198316865281151560200286019350610aa3565b610a7985610a13565b60005b83811015610a9b57815481890152600182019150602081019050610a7c565b808801955050505b50505092915050565b60006020820190508181036000830152610ac68184610a28565b905092915050565b7f4e487b7100000000000000000000000000000000000000000000000000000000600052601160045260246000fd5b6000610b088261062f565b9150610b138361062f565b9250828201905080821115610b2b57610b2a610ace565b5b92915050565b6000610b3c826106f7565b9150610b47836106f7565b925082820190508281121560008312168382126000841215161715610b6f57610b6e610ace565b5b92915050565b6000610b808261062f565b91507fffffffffffffffffffffffffffffffffffffffffffffffffffffffffffffffff8203610bb257610bb1610ace565b5b60018201905091905056fea264697066735822122005679d63d0801c60908e6e8bb5bca74470ff3690e5d7ab0adef94f45149e639064736f6c63430008110033",
					"opcodes": "PUSH1 0x80 PUSH1 0x40 MSTORE CALLVALUE DUP1 ISZERO PUSH3 0x11 JUMPI PUSH1 0x0 DUP1 REVERT JUMPDEST POP PUSH1 0x40 MLOAD PUSH3 0x11BA CODESIZE SUB DUP1 PUSH3 0x11BA DUP4 CODECOPY DUP2 DUP2 ADD PUSH1 0x40 MSTORE DUP2 ADD SWAP1 PUSH3 0x37 SWAP2 SWAP1 PUSH3 0x224 JUMP JUMPDEST DUP1 PUSH1 0x3 PUSH1 0x0 PUSH2 0x100 EXP DUP2 SLOAD DUP2 PUSH20 0xFFFFFFFFFFFFFFFFFFFFFFFFFFFFFFFFFFFFFFFF MUL NOT AND SWAP1 DUP4 PUSH20 0xFFFFFFFFFFFFFFFFFFFFFFFFFFFFFFFFFFFFFFFF AND MUL OR SWAP1 SSTORE POP PUSH1 0x5 DUP1 PUSH1 0x1 DUP2 SLOAD ADD DUP1 DUP3 SSTORE DUP1 SWAP2 POP POP PUSH1 0x1 SWAP1 SUB SWAP1 PUSH1 0x0 MSTORE PUSH1 0x20 PUSH1 0x0 KECCAK256 ADD PUSH1 0x0 PUSH1 0x40 MLOAD DUP1 PUSH1 0x40 ADD PUSH1 0x40 MSTORE DUP1 PUSH1 0xE DUP2 MSTORE PUSH1 0x20 ADD PUSH32 0x6973206E6F7420616C6C6F776564000000000000000000000000000000000000 DUP2 MSTORE POP SWAP1 SWAP2 SWAP1 SWAP2 POP SWAP1 DUP2 PUSH3 0xE0 SWAP2 SWAP1 PUSH3 0x4D0 JUMP JUMPDEST POP PUSH1 0x5 DUP1 PUSH1 0x1 DUP2 SLOAD ADD DUP1 DUP3 SSTORE DUP1 SWAP2 POP POP PUSH1 0x1 SWAP1 SUB SWAP1 PUSH1 0x0 MSTORE PUSH1 0x20 PUSH1 0x0 KECCAK256 ADD PUSH1 0x0 PUSH1 0x40 MLOAD DUP1 PUSH1 0x40 ADD PUSH1 0x40 MSTORE DUP1 PUSH1 0xA DUP2 MSTORE PUSH1 0x20 ADD PUSH32 0x6F6E6C79206F776E657200000000000000000000000000000000000000000000 DUP2 MSTORE POP SWAP1 SWAP2 SWAP1 SWAP2 POP SWAP1 DUP2 PUSH3 0x149 SWAP2 SWAP1 PUSH3 0x4D0 JUMP JUMPDEST POP PUSH1 0x5 DUP1 PUSH1 0x1 DUP2 SLOAD ADD DUP1 DUP3 SSTORE DUP1 SWAP2 POP POP PUSH1 0x1 SWAP1 SUB SWAP1 PUSH1 0x0 MSTORE PUSH1 0x20 PUSH1 0x0 KECCAK256 ADD PUSH1 0x0 PUSH1 0x40 MLOAD DUP1 PUSH1 0x40 ADD PUSH1 0x40 MSTORE DUP1 PUSH1 0xB DUP2 MSTORE PUSH1 0x20 ADD PUSH32 0x706C616365686F6C646572000000000000000000000000000000000000000000 DUP2 MSTORE POP SWAP1 SWAP2 SWAP1 SWAP2 POP SWAP1 DUP2 PUSH3 0x1B2 SWAP2 SWAP1 PUSH3 0x4D0 JUMP JUMPDEST POP POP PUSH3 0x5B7 JUMP JUMPDEST PUSH1 0x0 DUP1 REVERT JUMPDEST PUSH1 0x0 PUSH20 0xFFFFFFFFFFFFFFFFFFFFFFFFFFFFFFFFFFFFFFFF DUP3 AND SWAP1 POP SWAP2 SWAP1 POP JUMP JUMPDEST PUSH1 0x0 PUSH3 0x1EC DUP3 PUSH3 0x1BF JUMP JUMPDEST SWAP1 POP SWAP2 SWAP1 POP JUMP JUMPDEST PUSH3 0x1FE DUP2 PUSH3 0x1DF JUMP JUMPDEST DUP2 EQ PUSH3 0x20A JUMPI PUSH1 0x0 DUP1 REVERT JUMPDEST POP JUMP JUMPDEST PUSH1 0x0 DUP2 MLOAD SWAP1 POP PUSH3 0x21E DUP2 PUSH3 0x1F3 JUMP JUMPDEST SWAP3 SWAP2 POP POP JUMP JUMPDEST PUSH1 0x0 PUSH1 0x20 DUP3 DUP5 SUB SLT ISZERO PUSH3 0x23D JUMPI PUSH3 0x23C PUSH3 0x1BA JUMP JUMPDEST JUMPDEST PUSH1 0x0 PUSH3 0x24D DUP5 DUP3 DUP6 ADD PUSH3 0x20D JUMP JUMPDEST SWAP2 POP POP SWAP3 SWAP2 POP POP JUMP JUMPDEST PUSH1 0x0 DUP2 MLOAD SWAP1 POP SWAP2 SWAP1 POP JUMP JUMPDEST PUSH32 0x4E487B7100000000000000000000000000000000000000000000000000000000 PUSH1 0x0 MSTORE PUSH1 0x41 PUSH1 0x4 MSTORE PUSH1 0x24 PUSH1 0x0 REVERT JUMPDEST PUSH32 0x4E487B7100000000000000000000000000000000000000000000000000000000 PUSH1 0x0 MSTORE PUSH1 0x22 PUSH1 0x4 MSTORE PUSH1 0x24 PUSH1 0x0 REVERT JUMPDEST PUSH1 0x0 PUSH1 0x2 DUP3 DIV SWAP1 POP PUSH1 0x1 DUP3 AND DUP1 PUSH3 0x2D8 JUMPI PUSH1 0x7F DUP3 AND SWAP2 POP JUMPDEST PUSH1 0x20 DUP3 LT DUP2 SUB PUSH3 0x2EE JUMPI PUSH3 0x2ED PUSH3 0x290 JUMP JUMPDEST JUMPDEST POP SWAP2 SWAP1 POP JUMP JUMPDEST PUSH1 0x0 DUP2 SWAP1 POP DUP2 PUSH1 0x0 MSTORE PUSH1 0x20 PUSH1 0x0 KECCAK256 SWAP1 POP SWAP2 SWAP1 POP JUMP JUMPDEST PUSH1 0x0 PUSH1 0x20 PUSH1 0x1F DUP4 ADD DIV SWAP1 POP SWAP2 SWAP1 POP JUMP JUMPDEST PUSH1 0x0 DUP3 DUP3 SHL SWAP1 POP SWAP3 SWAP2 POP POP JUMP JUMPDEST PUSH1 0x0 PUSH1 0x8 DUP4 MUL PUSH3 0x358 PUSH32 0xFFFFFFFFFFFFFFFFFFFFFFFFFFFFFFFFFFFFFFFFFFFFFFFFFFFFFFFFFFFFFFFF DUP3 PUSH3 0x319 JUMP JUMPDEST PUSH3 0x364 DUP7 DUP4 PUSH3 0x319 JUMP JUMPDEST SWAP6 POP DUP1 NOT DUP5 AND SWAP4 POP DUP1 DUP7 AND DUP5 OR SWAP3 POP POP POP SWAP4 SWAP3 POP POP POP JUMP JUMPDEST PUSH1 0x0 DUP2 SWAP1 POP SWAP2 SWAP1 POP JUMP JUMPDEST PUSH1 0x0 DUP2 SWAP1 POP SWAP2 SWAP1 POP JUMP JUMPDEST PUSH1 0x0 PUSH3 0x3B1 PUSH3 0x3AB PUSH3 0x3A5 DUP5 PUSH3 0x37C JUMP JUMPDEST PUSH3 0x386 JUMP JUMPDEST PUSH3 0x37C JUMP JUMPDEST SWAP1 POP SWAP2 SWAP1 POP JUMP JUMPDEST PUSH1 0x0 DUP2 SWAP1 POP SWAP2 SWAP1 POP JUMP JUMPDEST PUSH3 0x3CD DUP4 PUSH3 0x390 JUMP JUMPDEST PUSH3 0x3E5 PUSH3 0x3DC DUP3 PUSH3 0x3B8 JUMP JUMPDEST DUP5 DUP5 SLOAD PUSH3 0x326 JUMP JUMPDEST DUP3 SSTORE POP POP POP POP JUMP JUMPDEST PUSH1 0x0 SWAP1 JUMP JUMPDEST PUSH3 0x3FC PUSH3 0x3ED JUMP JUMPDEST PUSH3 0x409 DUP2 DUP5 DUP5 PUSH3 0x3C2 JUMP JUMPDEST POP POP POP JUMP JUMPDEST JUMPDEST DUP2 DUP2 LT ISZERO PUSH3 0x431 JUMPI PUSH3 0x425 PUSH1 0x0 DUP3 PUSH3 0x3F2 JUMP JUMPDEST PUSH1 0x1 DUP2 ADD SWAP1 POP PUSH3 0x40F JUMP JUMPDEST POP POP JUMP JUMPDEST PUSH1 0x1F DUP3 GT ISZERO PUSH3 0x480 JUMPI PUSH3 0x44A DUP2 PUSH3 0x2F4 JUMP JUMPDEST PUSH3 0x455 DUP5 PUSH3 0x309 JUMP JUMPDEST DUP2 ADD PUSH1 0x20 DUP6 LT ISZERO PUSH3 0x465 JUMPI DUP2 SWAP1 POP JUMPDEST PUSH3 0x47D PUSH3 0x474 DUP6 PUSH3 0x309 JUMP JUMPDEST DUP4 ADD DUP3 PUSH3 0x40E JUMP JUMPDEST POP POP JUMPDEST POP POP POP JUMP JUMPDEST PUSH1 0x0 DUP3 DUP3 SHR SWAP1 POP SWAP3 SWAP2 POP POP JUMP JUMPDEST PUSH1 0x0 PUSH3 0x4A5 PUSH1 0x0 NOT DUP5 PUSH1 0x8 MUL PUSH3 0x485 JUMP JUMPDEST NOT DUP1 DUP4 AND SWAP2 POP POP SWAP3 SWAP2 POP POP JUMP JUMPDEST PUSH1 0x0 PUSH3 0x4C0 DUP4 DUP4 PUSH3 0x492 JUMP JUMPDEST SWAP2 POP DUP3 PUSH1 0x2 MUL DUP3 OR SWAP1 POP SWAP3 SWAP2 POP POP JUMP JUMPDEST PUSH3 0x4DB DUP3 PUSH3 0x256 JUMP JUMPDEST PUSH8 0xFFFFFFFFFFFFFFFF DUP2 GT ISZERO PUSH3 0x4F7 JUMPI PUSH3 0x4F6 PUSH3 0x261 JUMP JUMPDEST JUMPDEST PUSH3 0x503 DUP3 SLOAD PUSH3 0x2BF JUMP JUMPDEST PUSH3 0x510 DUP3 DUP3 DUP6 PUSH3 0x435 JUMP JUMPDEST PUSH1 0x0 PUSH1 0x20 SWAP1 POP PUSH1 0x1F DUP4 GT PUSH1 0x1 DUP2 EQ PUSH3 0x548 JUMPI PUSH1 0x0 DUP5 ISZERO PUSH3 0x533 JUMPI DUP3 DUP8 ADD MLOAD SWAP1 POP JUMPDEST PUSH3 0x53F DUP6 DUP3 PUSH3 0x4B2 JUMP JUMPDEST DUP7 SSTORE POP PUSH3 0x5AF JUMP JUMPDEST PUSH1 0x1F NOT DUP5 AND PUSH3 0x558 DUP7 PUSH3 0x2F4 JUMP JUMPDEST PUSH1 0x0 JUMPDEST DUP3 DUP2 LT ISZERO PUSH3 0x582 JUMPI DUP5 DUP10 ADD MLOAD DUP3 SSTORE PUSH1 0x1 DUP3 ADD SWAP2 POP PUSH1 0x20 DUP6 ADD SWAP5 POP PUSH1 0x20 DUP2 ADD SWAP1 POP PUSH3 0x55B JUMP JUMPDEST DUP7 DUP4 LT ISZERO PUSH3 0x5A2 JUMPI DUP5 DUP10 ADD MLOAD PUSH3 0x59E PUSH1 0x1F DUP10 AND DUP3 PUSH3 0x492 JUMP JUMPDEST DUP4 SSTORE POP JUMPDEST PUSH1 0x1 PUSH1 0x2 DUP9 MUL ADD DUP9 SSTORE POP POP POP JUMPDEST POP POP POP POP POP POP JUMP JUMPDEST PUSH2 0xBF3 DUP1 PUSH3 0x5C7 PUSH1 0x0 CODECOPY PUSH1 0x0 RETURN INVALID PUSH1 0x80 PUSH1 0x40 MSTORE CALLVALUE DUP1 ISZERO PUSH2 0x10 JUMPI PUSH1 0x0 DUP1 REVERT JUMPDEST POP PUSH1 0x4 CALLDATASIZE LT PUSH2 0xB4 JUMPI PUSH1 0x0 CALLDATALOAD PUSH1 0xE0 SHR DUP1 PUSH4 0x8DA5CB5B GT PUSH2 0x71 JUMPI DUP1 PUSH4 0x8DA5CB5B EQ PUSH2 0x169 JUMPI DUP1 PUSH4 0xBE7CB506 EQ PUSH2 0x187 JUMPI DUP1 PUSH4 0xC539AB78 EQ PUSH2 0x1A3 JUMPI DUP1 PUSH4 0xDD62ED3E EQ PUSH2 0x1D3 JUMPI DUP1 PUSH4 0xF6ACE8D7 EQ PUSH2 0x203 JUMPI DUP1 PUSH4 0xFFAC3B1D EQ PUSH2 0x21F JUMPI PUSH2 0xB4 JUMP JUMPDEST DUP1 PUSH4 0x6661ABD EQ PUSH2 0xB9 JUMPI DUP1 PUSH4 0x19E1FCA4 EQ PUSH2 0xD7 JUMPI DUP1 PUSH4 0x2BABAC22 EQ PUSH2 0xF5 JUMPI DUP1 PUSH4 0x5F3D8F4A EQ PUSH2 0x111 JUMPI DUP1 PUSH4 0x702051F0 EQ PUSH2 0x12F JUMPI DUP1 PUSH4 0x7CF5DAB0 EQ PUSH2 0x14D JUMPI JUMPDEST PUSH1 0x0 DUP1 REVERT JUMPDEST PUSH2 0xC1 PUSH2 0x229 JUMP JUMPDEST PUSH1 0x40 MLOAD PUSH2 0xCE SWAP2 SWAP1 PUSH2 0x648 JUMP JUMPDEST PUSH1 0x40 MLOAD DUP1 SWAP2 SUB SWAP1 RETURN JUMPDEST PUSH2 0xDF PUSH2 0x22F JUMP JUMPDEST PUSH1 0x40 MLOAD PUSH2 0xEC SWAP2 SWAP1 PUSH2 0x67E JUMP JUMPDEST PUSH1 0x40 MLOAD DUP1 SWAP2 SUB SWAP1 RETURN JUMPDEST PUSH2 0x10F PUSH1 0x4 DUP1 CALLDATASIZE SUB DUP2 ADD SWAP1 PUSH2 0x10A SWAP2 SWAP1 PUSH2 0x6CA JUMP JUMPDEST PUSH2 0x240 JUMP JUMPDEST STOP JUMPDEST PUSH2 0x119 PUSH2 0x25C JUMP JUMPDEST PUSH1 0x40 MLOAD PUSH2 0x126 SWAP2 SWAP1 PUSH2 0x710 JUMP JUMPDEST PUSH1 0x40 MLOAD DUP1 SWAP2 SUB SWAP1 RETURN JUMPDEST PUSH2 0x137 PUSH2 0x262 JUMP JUMPDEST PUSH1 0x40 MLOAD PUSH2 0x144 SWAP2 SWAP1 PUSH2 0x648 JUMP JUMPDEST PUSH1 0x40 MLOAD DUP1 SWAP2 SUB SWAP1 RETURN JUMPDEST PUSH2 0x167 PUSH1 0x4 DUP1 CALLDATASIZE SUB DUP2 ADD SWAP1 PUSH2 0x162 SWAP2 SWAP1 PUSH2 0x757 JUMP JUMPDEST PUSH2 0x26F JUMP JUMPDEST STOP JUMPDEST PUSH2 0x171 PUSH2 0x393 JUMP JUMPDEST PUSH1 0x40 MLOAD PUSH2 0x17E SWAP2 SWAP1 PUSH2 0x7C5 JUMP JUMPDEST PUSH1 0x40 MLOAD DUP1 SWAP2 SUB SWAP1 RETURN JUMPDEST PUSH2 0x1A1 PUSH1 0x4 DUP1 CALLDATASIZE SUB DUP2 ADD SWAP1 PUSH2 0x19C SWAP2 SWAP1 PUSH2 0x80C JUMP JUMPDEST PUSH2 0x3B9 JUMP JUMPDEST STOP JUMPDEST PUSH2 0x1BD PUSH1 0x4 DUP1 CALLDATASIZE SUB DUP2 ADD SWAP1 PUSH2 0x1B8 SWAP2 SWAP1 PUSH2 0x757 JUMP JUMPDEST PUSH2 0x3D0 JUMP JUMPDEST PUSH1 0x40 MLOAD PUSH2 0x1CA SWAP2 SWAP1 PUSH2 0x8C9 JUMP JUMPDEST PUSH1 0x40 MLOAD DUP1 SWAP2 SUB SWAP1 RETURN JUMPDEST PUSH2 0x1ED PUSH1 0x4 DUP1 CALLDATASIZE SUB DUP2 ADD SWAP1 PUSH2 0x1E8 SWAP2 SWAP1 PUSH2 0x917 JUMP JUMPDEST PUSH2 0x47C JUMP JUMPDEST PUSH1 0x40 MLOAD PUSH2 0x1FA SWAP2 SWAP1 PUSH2 0x67E JUMP JUMPDEST PUSH1 0x40 MLOAD DUP1 SWAP2 SUB SWAP1 RETURN JUMPDEST PUSH2 0x21D PUSH1 0x4 DUP1 CALLDATASIZE SUB DUP2 ADD SWAP1 PUSH2 0x218 SWAP2 SWAP1 PUSH2 0x957 JUMP JUMPDEST PUSH2 0x4AB JUMP JUMPDEST STOP JUMPDEST PUSH2 0x227 PUSH2 0x617 JUMP JUMPDEST STOP JUMPDEST PUSH1 0x1 SLOAD DUP2 JUMP JUMPDEST PUSH1 0x0 DUP1 SLOAD SWAP1 PUSH2 0x100 EXP SWAP1 DIV PUSH1 0xFF AND DUP2 JUMP JUMPDEST DUP1 PUSH1 0x0 DUP1 PUSH2 0x100 EXP DUP2 SLOAD DUP2 PUSH1 0xFF MUL NOT AND SWAP1 DUP4 ISZERO ISZERO MUL OR SWAP1 SSTORE POP POP JUMP JUMPDEST PUSH1 0x2 SLOAD DUP2 JUMP JUMPDEST PUSH1 0x0 PUSH1 0x5 DUP1 SLOAD SWAP1 POP SWAP1 POP SWAP1 JUMP JUMPDEST PUSH1 0x4 PUSH1 0x0 PUSH1 0x3 PUSH1 0x0 SWAP1 SLOAD SWAP1 PUSH2 0x100 EXP SWAP1 DIV PUSH20 0xFFFFFFFFFFFFFFFFFFFFFFFFFFFFFFFFFFFFFFFF AND PUSH20 0xFFFFFFFFFFFFFFFFFFFFFFFFFFFFFFFFFFFFFFFF AND PUSH20 0xFFFFFFFFFFFFFFFFFFFFFFFFFFFFFFFFFFFFFFFF AND DUP2 MSTORE PUSH1 0x20 ADD SWAP1 DUP2 MSTORE PUSH1 0x20 ADD PUSH1 0x0 KECCAK256 PUSH1 0x0 CALLER PUSH20 0xFFFFFFFFFFFFFFFFFFFFFFFFFFFFFFFFFFFFFFFF AND PUSH20 0xFFFFFFFFFFFFFFFFFFFFFFFFFFFFFFFFFFFFFFFF AND DUP2 MSTORE PUSH1 0x20 ADD SWAP1 DUP2 MSTORE PUSH1 0x20 ADD PUSH1 0x0 KECCAK256 PUSH1 0x0 SWAP1 SLOAD SWAP1 PUSH2 0x100 EXP SWAP1 DIV PUSH1 0xFF AND PUSH1 0x5 PUSH1 0x0 DUP2 SLOAD DUP2 LT PUSH2 0x330 JUMPI PUSH2 0x32F PUSH2 0x984 JUMP JUMPDEST JUMPDEST SWAP1 PUSH1 0x0 MSTORE PUSH1 0x20 PUSH1 0x0 KECCAK256 ADD SWAP1 PUSH2 0x37B JUMPI PUSH1 0x40 MLOAD PUSH32 0x8C379A000000000000000000000000000000000000000000000000000000000 DUP2 MSTORE PUSH1 0x4 ADD PUSH2 0x372 SWAP2 SWAP1 PUSH2 0xAAC JUMP JUMPDEST PUSH1 0x40 MLOAD DUP1 SWAP2 SUB SWAP1 REVERT JUMPDEST POP DUP1 PUSH1 0x1 SLOAD PUSH2 0x38A SWAP2 SWAP1 PUSH2 0xAFD JUMP JUMPDEST PUSH1 0x1 DUP2 SWAP1 SSTORE POP POP JUMP JUMPDEST PUSH1 0x3 PUSH1 0x0 SWAP1 SLOAD SWAP1 PUSH2 0x100 EXP SWAP1 DIV PUSH20 0xFFFFFFFFFFFFFFFFFFFFFFFFFFFFFFFFFFFFFFFF AND DUP2 JUMP JUMPDEST DUP1 PUSH1 0x2 SLOAD PUSH2 0x3C7 SWAP2 SWAP1 PUSH2 0xB31 JUMP JUMPDEST PUSH1 0x2 DUP2 SWAP1 SSTORE POP POP JUMP JUMPDEST PUSH1 0x5 DUP2 DUP2 SLOAD DUP2 LT PUSH2 0x3E0 JUMPI PUSH1 0x0 DUP1 REVERT JUMPDEST SWAP1 PUSH1 0x0 MSTORE PUSH1 0x20 PUSH1 0x0 KECCAK256 ADD PUSH1 0x0 SWAP2 POP SWAP1 POP DUP1 SLOAD PUSH2 0x3FB SWAP1 PUSH2 0x9E2 JUMP JUMPDEST DUP1 PUSH1 0x1F ADD PUSH1 0x20 DUP1 SWAP2 DIV MUL PUSH1 0x20 ADD PUSH1 0x40 MLOAD SWAP1 DUP2 ADD PUSH1 0x40 MSTORE DUP1 SWAP3 SWAP2 SWAP1 DUP2 DUP2 MSTORE PUSH1 0x20 ADD DUP3 DUP1 SLOAD PUSH2 0x427 SWAP1 PUSH2 0x9E2 JUMP JUMPDEST DUP1 ISZERO PUSH2 0x474 JUMPI DUP1 PUSH1 0x1F LT PUSH2 0x449 JUMPI PUSH2 0x100 DUP1 DUP4 SLOAD DIV MUL DUP4 MSTORE SWAP2 PUSH1 0x20 ADD SWAP2 PUSH2 0x474 JUMP JUMPDEST DUP3 ADD SWAP2 SWAP1 PUSH1 0x0 MSTORE PUSH1 0x20 PUSH1 0x0 KECCAK256 SWAP1 JUMPDEST DUP2 SLOAD DUP2 MSTORE SWAP1 PUSH1 0x1 ADD SWAP1 PUSH1 0x20 ADD DUP1 DUP4 GT PUSH2 0x457 JUMPI DUP3 SWAP1 SUB PUSH1 0x1F AND DUP3 ADD SWAP2 JUMPDEST POP POP POP POP POP DUP2 JUMP JUMPDEST PUSH1 0x4 PUSH1 0x20 MSTORE DUP2 PUSH1 0x0 MSTORE PUSH1 0x40 PUSH1 0x0 KECCAK256 PUSH1 0x20 MSTORE DUP1 PUSH1 0x0 MSTORE PUSH1 0x40 PUSH1 0x0 KECCAK256 PUSH1 0x0 SWAP2 POP SWAP2 POP SWAP1 SLOAD SWAP1 PUSH2 0x100 EXP SWAP1 DIV PUSH1 0xFF AND DUP2 JUMP JUMPDEST CALLER PUSH20 0xFFFFFFFFFFFFFFFFFFFFFFFFFFFFFFFFFFFFFFFF AND PUSH1 0x3 PUSH1 0x0 SWAP1 SLOAD SWAP1 PUSH2 0x100 EXP SWAP1 DIV PUSH20 0xFFFFFFFFFFFFFFFFFFFFFFFFFFFFFFFFFFFFFFFF AND PUSH20 0xFFFFFFFFFFFFFFFFFFFFFFFFFFFFFFFFFFFFFFFF AND EQ PUSH1 0x5 PUSH1 0x1 DUP2 SLOAD DUP2 LT PUSH2 0x511 JUMPI PUSH2 0x510 PUSH2 0x984 JUMP JUMPDEST JUMPDEST SWAP1 PUSH1 0x0 MSTORE PUSH1 0x20 PUSH1 0x0 KECCAK256 ADD SWAP1 PUSH2 0x55C JUMPI PUSH1 0x40 MLOAD PUSH32 0x8C379A000000000000000000000000000000000000000000000000000000000 DUP2 MSTORE PUSH1 0x4 ADD PUSH2 0x553 SWAP2 SWAP1 PUSH2 0xAAC JUMP JUMPDEST PUSH1 0x40 MLOAD DUP1 SWAP2 SUB SWAP1 REVERT JUMPDEST POP PUSH1 0x1 PUSH1 0x4 PUSH1 0x0 PUSH1 0x3 PUSH1 0x0 SWAP1 SLOAD SWAP1 PUSH2 0x100 EXP SWAP1 DIV PUSH20 0xFFFFFFFFFFFFFFFFFFFFFFFFFFFFFFFFFFFFFFFF AND PUSH20 0xFFFFFFFFFFFFFFFFFFFFFFFFFFFFFFFFFFFFFFFF AND PUSH20 0xFFFFFFFFFFFFFFFFFFFFFFFFFFFFFFFFFFFFFFFF AND DUP2 MSTORE PUSH1 0x20 ADD SWAP1 DUP2 MSTORE PUSH1 0x20 ADD PUSH1 0x0 KECCAK256 PUSH1 0x0 DUP4 PUSH20 0xFFFFFFFFFFFFFFFFFFFFFFFFFFFFFFFFFFFFFFFF AND PUSH20 0xFFFFFFFFFFFFFFFFFFFFFFFFFFFFFFFFFFFFFFFF AND DUP2 MSTORE PUSH1 0x20 ADD SWAP1 DUP2 MSTORE PUSH1 0x20 ADD PUSH1 0x0 KECCAK256 PUSH1 0x0 PUSH2 0x100 EXP DUP2 SLOAD DUP2 PUSH1 0xFF MUL NOT AND SWAP1 DUP4 ISZERO ISZERO MUL OR SWAP1 SSTORE POP POP JUMP JUMPDEST PUSH1 0x1 PUSH1 0x0 DUP2 SLOAD PUSH2 0x626 SWAP1 PUSH2 0xB75 JUMP JUMPDEST SWAP2 SWAP1 POP DUP2 SWAP1 SSTORE POP JUMP JUMPDEST PUSH1 0x0 DUP2 SWAP1 POP SWAP2 SWAP1 POP JUMP JUMPDEST PUSH2 0x642 DUP2 PUSH2 0x62F JUMP JUMPDEST DUP3 MSTORE POP POP JUMP JUMPDEST PUSH1 0x0 PUSH1 0x20 DUP3 ADD SWAP1 POP PUSH2 0x65D PUSH1 0x0 DUP4 ADD DUP5 PUSH2 0x639 JUMP JUMPDEST SWAP3 SWAP2 POP POP JUMP JUMPDEST PUSH1 0x0 DUP2 ISZERO ISZERO SWAP1 POP SWAP2 SWAP1 POP JUMP JUMPDEST PUSH2 0x678 DUP2 PUSH2 0x663 JUMP JUMPDEST DUP3 MSTORE POP POP JUMP JUMPDEST PUSH1 0x0 PUSH1 0x20 DUP3 ADD SWAP1 POP PUSH2 0x693 PUSH1 0x0 DUP4 ADD DUP5 PUSH2 0x66F JUMP JUMPDEST SWAP3 SWAP2 POP POP JUMP JUMPDEST PUSH1 0x0 DUP1 REVERT JUMPDEST PUSH2 0x6A7 DUP2 PUSH2 0x663 JUMP JUMPDEST DUP2 EQ PUSH2 0x6B2 JUMPI PUSH1 0x0 DUP1 REVERT JUMPDEST POP JUMP JUMPDEST PUSH1 0x0 DUP2 CALLDATALOAD SWAP1 POP PUSH2 0x6C4 DUP2 PUSH2 0x69E JUMP JUMPDEST SWAP3 SWAP2 POP POP JUMP JUMPDEST PUSH1 0x0 PUSH1 0x20 DUP3 DUP5 SUB SLT ISZERO PUSH2 0x6E0 JUMPI PUSH2 0x6DF PUSH2 0x699 JUMP JUMPDEST JUMPDEST PUSH1 0x0 PUSH2 0x6EE DUP5 DUP3 DUP6 ADD PUSH2 0x6B5 JUMP JUMPDEST SWAP2 POP POP SWAP3 SWAP2 POP POP JUMP JUMPDEST PUSH1 0x0 DUP2 SWAP1 POP SWAP2 SWAP1 POP JUMP JUMPDEST PUSH2 0x70A DUP2 PUSH2 0x6F7 JUMP JUMPDEST DUP3 MSTORE POP POP JUMP JUMPDEST PUSH1 0x0 PUSH1 0x20 DUP3 ADD SWAP1 POP PUSH2 0x725 PUSH1 0x0 DUP4 ADD DUP5 PUSH2 0x701 JUMP JUMPDEST SWAP3 SWAP2 POP POP JUMP JUMPDEST PUSH2 0x734 DUP2 PUSH2 0x62F JUMP JUMPDEST DUP2 EQ PUSH2 0x73F JUMPI PUSH1 0x0 DUP1 REVERT JUMPDEST POP JUMP JUMPDEST PUSH1 0x0 DUP2 CALLDATALOAD SWAP1 POP PUSH2 0x751 DUP2 PUSH2 0x72B JUMP JUMPDEST SWAP3 SWAP2 POP POP JUMP JUMPDEST PUSH1 0x0 PUSH1 0x20 DUP3 DUP5 SUB SLT ISZERO PUSH2 0x76D JUMPI PUSH2 0x76C PUSH2 0x699 JUMP JUMPDEST JUMPDEST PUSH1 0x0 PUSH2 0x77B DUP5 DUP3 DUP6 ADD PUSH2 0x742 JUMP JUMPDEST SWAP2 POP POP SWAP3 SWAP2 POP POP JUMP JUMPDEST PUSH1 0x0 PUSH20 0xFFFFFFFFFFFFFFFFFFFFFFFFFFFFFFFFFFFFFFFF DUP3 AND SWAP1 POP SWAP2 SWAP1 POP JUMP JUMPDEST PUSH1 0x0 PUSH2 0x7AF DUP3 PUSH2 0x784 JUMP JUMPDEST SWAP1 POP SWAP2 SWAP1 POP JUMP JUMPDEST PUSH2 0x7BF DUP2 PUSH2 0x7A4 JUMP JUMPDEST DUP3 MSTORE POP POP JUMP JUMPDEST PUSH1 0x0 PUSH1 0x20 DUP3 ADD SWAP1 POP PUSH2 0x7DA PUSH1 0x0 DUP4 ADD DUP5 PUSH2 0x7B6 JUMP JUMPDEST SWAP3 SWAP2 POP POP JUMP JUMPDEST PUSH2 0x7E9 DUP2 PUSH2 0x6F7 JUMP JUMPDEST DUP2 EQ PUSH2 0x7F4 JUMPI PUSH1 0x0 DUP1 REVERT JUMPDEST POP JUMP JUMPDEST PUSH1 0x0 DUP2 CALLDATALOAD SWAP1 POP PUSH2 0x806 DUP2 PUSH2 0x7E0 JUMP JUMPDEST SWAP3 SWAP2 POP POP JUMP JUMPDEST PUSH1 0x0 PUSH1 0x20 DUP3 DUP5 SUB SLT ISZERO PUSH2 0x822 JUMPI PUSH2 0x821 PUSH2 0x699 JUMP JUMPDEST JUMPDEST PUSH1 0x0 PUSH2 0x830 DUP5 DUP3 DUP6 ADD PUSH2 0x7F7 JUMP JUMPDEST SWAP2 POP POP SWAP3 SWAP2 POP POP JUMP JUMPDEST PUSH1 0x0 DUP2 MLOAD SWAP1 POP SWAP2 SWAP1 POP JUMP JUMPDEST PUSH1 0x0 DUP3 DUP3 MSTORE PUSH1 0x20 DUP3 ADD SWAP1 POP SWAP3 SWAP2 POP POP JUMP JUMPDEST PUSH1 0x0 JUMPDEST DUP4 DUP2 LT ISZERO PUSH2 0x873 JUMPI DUP1 DUP3 ADD MLOAD DUP2 DUP5 ADD MSTORE PUSH1 0x20 DUP2 ADD SWAP1 POP PUSH2 0x858 JUMP JUMPDEST PUSH1 0x0 DUP5 DUP5 ADD MSTORE POP POP POP POP JUMP JUMPDEST PUSH1 0x0 PUSH1 0x1F NOT PUSH1 0x1F DUP4 ADD AND SWAP1 POP SWAP2 SWAP1 POP JUMP JUMPDEST PUSH1 0x0 PUSH2 0x89B DUP3 PUSH2 0x839 JUMP JUMPDEST PUSH2 0x8A5 DUP2 DUP6 PUSH2 0x844 JUMP JUMPDEST SWAP4 POP PUSH2 0x8B5 DUP2 DUP6 PUSH1 0x20 DUP7 ADD PUSH2 0x855 JUMP JUMPDEST PUSH2 0x8BE DUP2 PUSH2 0x87F JUMP JUMPDEST DUP5 ADD SWAP2 POP POP SWAP3 SWAP2 POP POP JUMP JUMPDEST PUSH1 0x0 PUSH1 0x20 DUP3 ADD SWAP1 POP DUP2 DUP2 SUB PUSH1 0x0 DUP4 ADD MSTORE PUSH2 0x8E3 DUP2 DUP5 PUSH2 0x890 JUMP JUMPDEST SWAP1 POP SWAP3 SWAP2 POP POP JUMP JUMPDEST PUSH2 0x8F4 DUP2 PUSH2 0x7A4 JUMP JUMPDEST DUP2 EQ PUSH2 0x8FF JUMPI PUSH1 0x0 DUP1 REVERT JUMPDEST POP JUMP JUMPDEST PUSH1 0x0 DUP2 CALLDATALOAD SWAP1 POP PUSH2 0x911 DUP2 PUSH2 0x8EB JUMP JUMPDEST SWAP3 SWAP2 POP POP JUMP JUMPDEST PUSH1 0x0 DUP1 PUSH1 0x40 DUP4 DUP6 SUB SLT ISZERO PUSH2 0x92E JUMPI PUSH2 0x92D PUSH2 0x699 JUMP JUMPDEST JUMPDEST PUSH1 0x0 PUSH2 0x93C DUP6 DUP3 DUP7 ADD PUSH2 0x902 JUMP JUMPDEST SWAP3 POP POP PUSH1 0x20 PUSH2 0x94D DUP6 DUP3 DUP7 ADD PUSH2 0x902 JUMP JUMPDEST SWAP2 POP POP SWAP3 POP SWAP3 SWAP1 POP JUMP JUMPDEST PUSH1 0x0 PUSH1 0x20 DUP3 DUP5 SUB SLT ISZERO PUSH2 0x96D JUMPI PUSH2 0x96C PUSH2 0x699 JUMP JUMPDEST JUMPDEST PUSH1 0x0 PUSH2 0x97B DUP5 DUP3 DUP6 ADD PUSH2 0x902 JUMP JUMPDEST SWAP2 POP POP SWAP3 SWAP2 POP POP JUMP JUMPDEST PUSH32 0x4E487B7100000000000000000000000000000000000000000000000000000000 PUSH1 0x0 MSTORE PUSH1 0x32 PUSH1 0x4 MSTORE PUSH1 0x24 PUSH1 0x0 REVERT JUMPDEST PUSH32 0x4E487B7100000000000000000000000000000000000000000000000000000000 PUSH1 0x0 MSTORE PUSH1 0x22 PUSH1 0x4 MSTORE PUSH1 0x24 PUSH1 0x0 REVERT JUMPDEST PUSH1 0x0 PUSH1 0x2 DUP3 DIV SWAP1 POP PUSH1 0x1 DUP3 AND DUP1 PUSH2 0x9FA JUMPI PUSH1 0x7F DUP3 AND SWAP2 POP JUMPDEST PUSH1 0x20 DUP3 LT DUP2 SUB PUSH2 0xA0D JUMPI PUSH2 0xA0C PUSH2 0x9B3 JUMP JUMPDEST JUMPDEST POP SWAP2 SWAP1 POP JUMP JUMPDEST PUSH1 0x0 DUP2 SWAP1 POP DUP2 PUSH1 0x0 MSTORE PUSH1 0x20 PUSH1 0x0 KECCAK256 SWAP1 POP SWAP2 SWAP1 POP JUMP JUMPDEST PUSH1 0x0 DUP2 SLOAD PUSH2 0xA35 DUP2 PUSH2 0x9E2 JUMP JUMPDEST PUSH2 0xA3F DUP2 DUP7 PUSH2 0x844 JUMP JUMPDEST SWAP5 POP PUSH1 0x1 DUP3 AND PUSH1 0x0 DUP2 EQ PUSH2 0xA5A JUMPI PUSH1 0x1 DUP2 EQ PUSH2 0xA70 JUMPI PUSH2 0xAA3 JUMP JUMPDEST PUSH1 0xFF NOT DUP4 AND DUP7 MSTORE DUP2 ISZERO ISZERO PUSH1 0x20 MUL DUP7 ADD SWAP4 POP PUSH2 0xAA3 JUMP JUMPDEST PUSH2 0xA79 DUP6 PUSH2 0xA13 JUMP JUMPDEST PUSH1 0x0 JUMPDEST DUP4 DUP2 LT ISZERO PUSH2 0xA9B JUMPI DUP2 SLOAD DUP2 DUP10 ADD MSTORE PUSH1 0x1 DUP3 ADD SWAP2 POP PUSH1 0x20 DUP2 ADD SWAP1 POP PUSH2 0xA7C JUMP JUMPDEST DUP1 DUP9 ADD SWAP6 POP POP POP JUMPDEST POP POP POP SWAP3 SWAP2 POP POP JUMP JUMPDEST PUSH1 0x0 PUSH1 0x20 DUP3 ADD SWAP1 POP DUP2 DUP2 SUB PUSH1 0x0 DUP4 ADD MSTORE PUSH2 0xAC6 DUP2 DUP5 PUSH2 0xA28 JUMP JUMPDEST SWAP1 POP SWAP3 SWAP2 POP POP JUMP JUMPDEST PUSH32 0x4E487B7100000000000000000000000000000000000000000000000000000000 PUSH1 0x0 MSTORE PUSH1 0x11 PUSH1 0x4 MSTORE PUSH1 0x24 PUSH1 0x0 REVERT JUMPDEST PUSH1 0x0 PUSH2 0xB08 DUP3 PUSH2 0x62F JUMP JUMPDEST SWAP2 POP PUSH2 0xB13 DUP4 PUSH2 0x62F JUMP JUMPDEST SWAP3 POP DUP3 DUP3 ADD SWAP1 POP DUP1 DUP3 GT ISZERO PUSH2 0xB2B JUMPI PUSH2 0xB2A PUSH2 0xACE JUMP JUMPDEST JUMPDEST SWAP3 SWAP2 POP POP JUMP JUMPDEST PUSH1 0x0 PUSH2 0xB3C DUP3 PUSH2 0x6F7 JUMP JUMPDEST SWAP2 POP PUSH2 0xB47 DUP4 PUSH2 0x6F7 JUMP JUMPDEST SWAP3 POP DUP3 DUP3 ADD SWAP1 POP DUP3 DUP2 SLT ISZERO PUSH1 0x0 DUP4 SLT AND DUP4 DUP3 SLT PUSH1 0x0 DUP5 SLT ISZERO AND OR ISZERO PUSH2 0xB6F JUMPI PUSH2 0xB6E PUSH2 0xACE JUMP JUMPDEST JUMPDEST SWAP3 SWAP2 POP POP JUMP JUMPDEST PUSH1 0x0 PUSH2 0xB80 DUP3 PUSH2 0x62F JUMP JUMPDEST SWAP2 POP PUSH32 0xFFFFFFFFFFFFFFFFFFFFFFFFFFFFFFFFFFFFFFFFFFFFFFFFFFFFFFFFFFFFFFFF DUP3 SUB PUSH2 0xBB2 JUMPI PUSH2 0xBB1 PUSH2 0xACE JUMP JUMPDEST JUMPDEST PUSH1 0x1 DUP3 ADD SWAP1 POP SWAP2 SWAP1 POP JUMP INVALID LOG2 PUSH5 0x6970667358 0x22 SLT KECCAK256 SDIV PUSH8 0x9D63D0801C60908E PUSH15 0x8BB5BCA74470FF3690E5D7AB0ADEF9 0x4F GASLIMIT EQ SWAP15 PUSH4 0x9064736F PUSH13 0x63430008110033000000000000 "
				},
				"gasEstimates": {
					"creation": {
						"codeDepositCost": "611800",
						"executionCost": "infinite",
						"totalCost": "infinite"
					},
					"external": {
						"allowance(address,address)": "infinite",
						"allowed()": "2491",
						"assignAllowance(address)": "infinite",
						"count()": "2430",
						"errorMessages(uint256)": "infinite",
						"getSizeOfErrorMessages()": "2534",
						"increment(uint256)": "infinite",
						"oneIncrement()": "24605",
						"owner()": "2514",
						"setAllowed(bool)": "24724",
						"signedCount()": "2496",
						"signedIncrement(int256)": "infinite"
					}
				},
				"methodIdentifiers": {
					"allowance(address,address)": "dd62ed3e",
					"allowed()": "19e1fca4",
					"assignAllowance(address)": "f6ace8d7",
					"count()": "06661abd",
					"errorMessages(uint256)": "c539ab78",
					"getSizeOfErrorMessages()": "702051f0",
					"increment(uint256)": "7cf5dab0",
					"oneIncrement()": "ffac3b1d",
					"owner()": "8da5cb5b",
					"setAllowed(bool)": "2babac22",
					"signedCount()": "5f3d8f4a",
					"signedIncrement(int256)": "be7cb506"
				}
			},
			"storageLayout": {
				"storage": [
					{
						"astId": 3,
						"contract": "contracts/SimpleContract.sol:SimpleContract",
						"label": "allowed",
						"offset": 0,
						"slot": "0",
						"type": "t_bool"
					},
					{
						"astId": 5,
						"contract": "contracts/SimpleContract.sol:SimpleContract",
						"label": "count",
						"offset": 0,
						"slot": "1",
						"type": "t_uint256"
					},
					{
						"astId": 7,
						"contract": "contracts/SimpleContract.sol:SimpleContract",
						"label": "signedCount",
						"offset": 0,
						"slot": "2",
						"type": "t_int256"
					},
					{
						"astId": 9,
						"contract": "contracts/SimpleContract.sol:SimpleContract",
						"label": "owner",
						"offset": 0,
						"slot": "3",
						"type": "t_address"
					},
					{
						"astId": 15,
						"contract": "contracts/SimpleContract.sol:SimpleContract",
						"label": "allowance",
						"offset": 0,
						"slot": "4",
						"type": "t_mapping(t_address,t_mapping(t_address,t_bool))"
					},
					{
						"astId": 18,
						"contract": "contracts/SimpleContract.sol:SimpleContract",
						"label": "errorMessages",
						"offset": 0,
						"slot": "5",
						"type": "t_array(t_string_storage)dyn_storage"
					}
				],
				"types": {
					"t_address": {
						"encoding": "inplace",
						"label": "address",
						"numberOfBytes": "20"
					},
					"t_array(t_string_storage)dyn_storage": {
						"base": "t_string_storage",
						"encoding": "dynamic_array",
						"label": "string[]",
						"numberOfBytes": "32"
					},
					"t_bool": {
						"encoding": "inplace",
						"label": "bool",
						"numberOfBytes": "1"
					},
					"t_int256": {
						"encoding": "inplace",
						"label": "int256",
						"numberOfBytes": "32"
					},
					"t_mapping(t_address,t_bool)": {
						"encoding": "mapping",
						"key": "t_address",
						"label": "mapping(address => bool)",
						"numberOfBytes": "32",
						"value": "t_bool"
					},
					"t_mapping(t_address,t_mapping(t_address,t_bool))": {
						"encoding": "mapping",
						"key": "t_address",
						"label": "mapping(address => mapping(address => bool))",
						"numberOfBytes": "32",
						"value": "t_mapping(t_address,t_bool)"
					},
					"t_string_storage": {
						"encoding": "bytes",
						"label": "string",
						"numberOfBytes": "32"
					},
					"t_uint256": {
						"encoding": "inplace",
						"label": "uint256",
						"numberOfBytes": "32"
					}
				}
			},
			"userdoc": {
				"kind": "user",
				"methods": {},
				"version": 1
			}
		}
	}
}